:020000040800F2
:10000000D8100020490100085F270008A725000834
:100010005D2700081B130008FD2C000800000000ED
:10002000000000000000000000000000632700083E
:100030001D13000800000000612700086527000864
:100040006301000863010008630100086301000800
:1000500063010008630100086301000863010008F0
:1000600063010008630100086301000863010008E0
:1000700063010008630100086301000863010008D0
:1000800063010008630100086301000863010008C0
:1000900063010008630100086301000863010008B0
:1000A00063010008630100086301000863010008A0
:1000B0006301000863010008630100086301000890
:1000C0006301000863010008630100086301000880
:1000D000630100086301000863010008F12C0008B7
:1000E0006301000863010008630100086301000860
:1000F0006301000863010008630100086301000850
:10010000630100086301000863010008630100083F
:10011000630100086301000863010008630100082F
:10012000630100086301000863010008630100081F
:10013000DFF810D000F084FE00480047F13E0008D0
:10014000AFF30080D81000200648804706480047DB
:10015000FEE7FEE7FEE7FEE7FEE7FEE7FEE7FEE777
:10016000FEE7FEE7C727000831010008202A04DB6C
:10017000203A21FA02F00021704721FA02F3D04020
:10018000C2F12002914008431946704740EA01033A
:100190009B0703D009E008C9121F08C0042AFAD23D
:1001A00003E011F8013B00F8013B521EF9D2704701
:1001B000D2B201E000F8012B491EFBD270470022A9
:1001C000F6E710B513460A4604461946FFF7F0FF56
:1001D000204610BD30B505462A460B4612F8010BE5
:1001E00013F8014B08B1A042F8D01CB1002802D08E
:1001F0006D1CF1E7284630BD10B5044604E00B78CD
:1002000000F8013B03B1491C521EF8D2204610BD34
:10021000CAB2401E10F8011F8A4202D00029F9D14B
:1002200000207047421C10F8011B0029FBD1801AE6
:10023000704710B5002200E0521C835C8C5CA34226
:1002400001D1002BF8D1D8B2E1B2401A10BD002282
:10025000CBB20178994200D10246401C0029F8D166
:10026000104670470FB400B58DB010A909900B90DF
:1002700000914FF0FF300A9000200C900548069046
:10028000054807906A4609A80F9900F093FB0DB046
:100290005DF814FBD1090008EF0900082DE9FF5FA4
:1002A0001D464FF0FF3BD5E9014691465F464FF0B2
:1002B0000008A9697F1C01988847296A82468847F7
:1002C0000028F6D1BAF1FF3F0CD024F4C064002E10
:1002D00019DD600614D5BAF12B0F09D0BAF12D0F34
:1002E0000ED103E0584604B0BDE8F09F44F48064AA
:1002F000A9697F1C01988847761E8246002E02DD80
:10030000BAF1300F03D0B9F1000F26D032E0A9695D
:10031000761E44F400747F1C019888478246002EA4
:1003200005DDBAF1780F06D0BAF1580F03D0B9F154
:10033000000F10D01EE0B9F1000F02D0B9F1100F7C
:1003400018D1A969761E24F400747F1C019888478F
:100350008246102002E0082000E00A20814609E0E1
:1003600008FB0908A969761E44F400747F1C0198F3
:1003700088478246002E05DD4946504600F006FBC0
:100380000028EDDAE96901988847A00502D46FF0EA
:100390000100A8E7E00725D1600613D5600502D566
:1003A000C8F1000000E0404629680A1D2A6009687B
:1003B000220501D5087015E0220701D5088011E05B
:1003C00008600FE02868011D29600068210502D53A
:1003D00080F8008006E0210702D5A0F8008001E047
:1003E000C0F8008038467EE72DE9FF5FD2E901A71B
:1003F0004FF00008916999461446DDF838B046463A
:1004000001988847054659EA0B0005D009E0A16923
:10041000761C019888470546216A284688470028A7
:10042000F5D1681C03D05FEACA7005D015E04FF023
:10043000FF3004B0BDE8F09F2068011D2160D0F8B6
:1004400000800AE05FEACA7001D108F8015BA16987
:10045000761C7F1E019888470546002F1ADD681C10
:1004600018D0B9F1000F0DD0E81705EBD06042119C
:1004700020F01F0059F822102A1A01209040014252
:10048000E0D107E0BBF1000FDCD1216A28468847A4
:100490000028D7D0E16901988847BBF1000F07D148
:1004A000002E05DD5FEACA7002D1002188F8001035
:1004B000A068B84203DDBBF1000F03D017B16FF0A5
:1004C0000100B6E73046B4E72DE9FF4F087883B066
:1004D0009946FF2805D0491C2D2804D0002400206F
:1004E00008E000200BE00124F9E700EB800003EBBB
:1004F0004000491C0B78FF2BF7D104B14042002388
:100500000293147819461D462D2C01D02B2C04D1B2
:10051000521C2D2C13D000240294AA461478FF2CD0
:100520000FD00A25A3FB057801FB05814FF0000CD5
:1005300003FB0C11521CE3194AEB0101EEE7012405
:10054000EAE7814453EA010002D019F5C87F06DAD0
:1005500003980021C0E9001107B0BDE8F08F002525
:10056000AE4E2F46DFF8B882184600F010FCCDE9F9
:100570000001B9F1000002DAC9F1000400E004460C
:100580000023A74A1AEB030B42EB045A12E0E007E0
:1005900007D02A4633463846414600F017FB074647
:1005A00088462A4633461046194600F00FFB05469A
:1005B0000E466410002CEAD1DDE90001B9F1000F0C
:1005C0005A46534606DA00F073FB3A46434600F0BB
:1005D0006FFB05E000F0FAFA3A46434600F0F6FAFF
:1005E000029A0AB181F00041039AC2E90001B3E71F
:1005F0002DE9FF4F1F468DB0D7E901464FF0FF3878
:100600002E2045464FF000090B90B9696D1C0E98DD
:100610008847396A824688470028F6D1BAF1FF3FF9
:100620000AD024F4D064002E11DDBAF12B0F08D0CB
:10063000BAF12D0F0BD102E0404611B08DE744F422
:100640008064B9696D1C0E9888478246761E69469B
:10065000600501D52D2000E02B208DF8000001F170
:10066000010B0DF1200809E0B9696D1C0E9888474F
:1006700082460F9844F40074761E0560002E02DD59
:10068000BAF1300FF0D00B998A453ED144F0800486
:1006900006E00F99681CA9F1010944F40074086090
:1006A000B9696D1C761E0E98884782463028F0D0B6
:1006B0002BE00B998A4505D1200603D444F0800431
:1006C000761E18E0504602F041FC08B30DF113010C
:1006D000761E44F400748B4508D2AAF130000BF862
:1006E000010B200607D5A9F1010003E0200602D482
:1006F00009F101008146A00502D50F99681C086028
:10070000B9696D1C0E9888478246002ED1DC53E0F3
:10071000002E51DDBAF1650F02D0BAF1450F4BD171
:10072000A00549D5B9696D1C24F44074761E0E9855
:1007300088478246002E0CDD2B2804D0BAF12D0FFD
:1007400007D144F48074B9696D1C0E9888478246BD
:10075000761EE00501D52D2100E02B2108F8011BB4
:10076000CDF82C8021E00DF12901761E44F40074AF
:1007700088450CD2AAF1300010F0FF0088F8000084
:1007800002D10B99884509D908F1010806E0E00576
:1007900001D5244801E042F20F708146B9696D1C11
:1007A0000E98884782460F980560002E04DD50465B
:1007B00002F0CCFB0028D6D1F9690E988847FF20BB
:1007C0008BF8000088F800000020069007904B4648
:1007D0006A4608A906A8FFF777FEA00502D46FF0C5
:1007E00001002AE714F0240F0AD0E00714D1DDE954
:1007F00006123868031D3B600068C0E900120BE078
:10080000DDE9060100F000FB0146E00704D138688D
:10081000021D3A600068016028460EE7000014409F
:100820000000F03FF1D8FFFFF0B480EA0102D40FDE
:100830004200B2EB410F02D20246084611464A007E
:1008400042D0C30DDDB2C1F3C752AD1A202D35DA47
:10085000C1F3160141F4000204B15242C5F1200671
:1008600002FA06F12A411044B3EBD05F23D0C4B1A1
:10087000012DA0EBC35009DCF0BC4FF0004202EAAE
:10088000C352DBB200F5000000F0CBB8400000F12D
:10089000807000EBC350A0F1807040EAD170490035
:1008A00009E0490841EAC071A0EBC35000F500001F
:1008B000400800EBC350F0BC00F0AAB8614201222E
:1008C00002EB4101001BF6E7F0BC704781F00041EC
:1008D000AAE780F00040A7E700F0004230F00040B7
:1008E0000AD0C10D01F56071C0F3160042EA015152
:1008F000C20840071143704700200146704730B5D9
:100900000B46014600202022012409E021FA02F5CD
:100910009D4205D303FA02F5491B04FA02F5284467
:10092000151EA2F10102F1DC30BD2DE9F05F054694
:10093000002092469B4688460646814640241BE09E
:100940002846414647462246FFF710FC53465A4682
:10095000C01A914110D311461846224600F082FA7F
:100960002D1A67EB01084F4622460120002100F0B6
:1009700079FA17EB00094E41201EA4F10104DFDCD7
:10098000484631462A464346BDE8F09F3A2800D201
:10099000303820F02002412A01D3A2F137008842EA
:1009A00001D34FF0FF3070470268114413780160A3
:1009B00018467047D1600449516104491162002111
:1009C0001161114600F074BAA9090008A70E0008C9
:1009D000426842B1016811F8013B23B1521EC0E9DF
:1009E0000012184670470121C160881E7047426896
:1009F0005AB1C368016843B983688B4205D0491E68
:100A0000521CC0E90012002070474FF0FF307047C1
:100A10000029A8BF7047401C490008BF20F0010012
:100A2000704710B4B0FA80FC00FA0CF050EA0104F0
:100A300004BF10BC704749B1CCF1200421FA04F482
:100A400011FA0CF118BF012121430843A3EB0C015B
:100A5000CB1D4FEA00614FEA102042BF002010BCBE
:100A6000704700EBC35010440029A4BF10BC70476E
:100A7000401C490008BF20F0010010BC70472DE960
:100A8000FE4F804681EA0300C00F0C46009021F023
:100A9000004123F00045B8EB0200A94105D24046D1
:100AA000214690461C460B46024623F00040104368
:100AB00047D0270DC7F30A00C3F30A510290401A2A
:100AC000019040286BDAC3F3130040F4801B0098B8
:100AD000924620B10023D2EB030A63EB0B0B019883
:100AE0005946C0F14002504600F0BCF906460D469A
:100AF00050465946019A00F0C4F910EB08006141D4
:100B0000002487EA115284EAE7731A4340D0009A1E
:100B100062B3019A012A4FEA075215DC001B61EB10
:100B200002014FF0004202EA0752CDE90042001CE8
:100B300041F5801132462B4600F061FB03B0BDE861
:100B4000F08F40462146F9E7001B61EB0201001CD3
:100B500041F5801300185B412018A2F5001747EB00
:100B6000030140EAD570B6196D4111E06D084FEAF6
:100B7000360645EAC0754FEA0752001B61EB0201D9
:100B8000001C41F5801149084FEA3000001951411D
:100B900032462B4603B0BDE8F04F00F021BB009871
:100BA000012240000023D0EB020263EBE0730098C7
:100BB00021464FEAE074B8EB000061EB0401E9E77D
:100BC00083F000435BE781F0004158E72DE9FE4FD9
:100BD00081EA030404F0004421F0004100944FF046
:100BE000000B23F0004350EA01045ED052EA0304F4
:100BF0005BD0C3F30A54C1F30A552C44A4F2F33476
:100C00000194A0FB0254C1F3130141F48011C3F31A
:100C1000130343F4801301FB024400FB034E840AD8
:100C2000970A44EA815447EA8357A4FB0768029570
:100C30008D0A05FB07854FEA932C04FB0C5427050E
:100C4000029D4FEA065847EA1637B5EB08056EEBEA
:100C5000070C870E920E47EA811742EA8312A7FB20
:100C60000201B6EB0B0164EB00042B0D43EA0C33DD
:100C70005E1844EB1C50DA465146E7FB0201C5F30F
:100C800013044FEA0B3343EA14534FEA0432019C36
:100C900043EA0603A4F10C040294009CCDE900B4DD
:100CA00000F0ADFA03B0BDE8F08F00200146F9E78F
:100CB0002DE9F04D81EA030404F0004B21F00045DA
:100CC00014464FF0000A23F0004150EA050220D0FC
:100CD00054EA01021DD0C5F30A570246C5F31303B7
:100CE000C1F31300C1F30A5640F4801543F4801396
:100CF000A7EB0608101BD64608F2FD3873EB05007B
:100D000002D308F1010801E092185B41B8F1000F2D
:100D100003DA00200146BDE8F08D00204FF4801179
:100D2000064684460EE0171B73EB050705D3121B1E
:100D300063EB050306434CEA010C49084FEA300017
:100D400092185B4150EA0107EDD152EA030012D03C
:100D500082EA040083EA0501084305D0101BAB4179
:100D600006D20122002306E000224FF0004302E0F9
:100D70006FF0010253101AEB06004CEB085110EB18
:100D80000A0041EB0B01BDE8F04D00F029BA0EB5A9
:100D900040F2334202920022CDE90022134600F0D5
:100DA0002EFA03B000BDC1F30A52C1F3130140F2A1
:100DB000FF3341F480119A4202DA00200146704765
:100DC00040F233439A42A2F2334202DC5242FFF72E
:100DD000CDB900F047B8000030B5041E71F1000431
:100DE00004DB4FF00044404264EB0101141E73F138
:100DF000000405DB1C464FF00043524263EB040342
:100E0000994208BF904230BD01F0004330B421F058
:100E1000004150EA010206D00A0DA2F56072C1F34A
:100E20001301002A02DC30BC00207047440F44EA62
:100E3000C104C100E01830BC00EBC250FFF7E8BDB0
:100E4000064C074D06E0E06840F0010394E8070017
:100E500098471034AC42F6D3FFF76EF9B84B000850
:100E6000D84B0008202A04DB203A00FA02F10020C7
:100E700070479140C2F1200320FA03F319439040D8
:100E80007047202A06DBCB17203A41FA02F043EAEA
:100E9000E07306E041FA02F3D040C2F12002914033
:100EA000084319467047C0B24FF4F05100F0F6B94C
:100EB0002DE9F34F8BB04FF0000801F10C000C4608
:100EC0004FF0010B46460DF1080A019062690121BD
:100ED00001989047051E2DD0252D2CD0216A8847DA
:100EE000C0B16269012101989047216A88470028B2
:100EF000F7D1411E62690198904700E0761CA16914
:100F00000B988847216A88470028F7D1E1690B9838
:100F10008847DBE7A1690B9888470746A84201D1BB
:100F2000761CD3E7E1690B9888477F1C02D1B8F1A2
:100F3000000F6FD047E1002762693D4639460198AE
:100F400090472A2804D16269012101989047012520
:100F5000DFF888926269012101989047A0F1300181
:100F60000A290AD24F45E5DC07EB870100EB410770
:100F7000303FDFD445F01005ECE7E90601D46FF00F
:100F800000476C280AD04C2814D0682815D06A284D
:100F90000DD074281CD07A281AD01DE06269012176
:100FA000019890476C2802D045F0040514E045F004
:100FB00002050DE045F020050AE062690121019873
:100FC0009047682802D045F0080505E045F4006523
:100FD0006269012101989047C4E9015765283DD015
:100FE00019DC58287AD00CDC452837D004DC2528B9
:100FF00026D0412831D131E046282FD047282CD1A6
:101000002CE05B2877D0612828D063287CD0642826
:1010100023D15AE0D1E06F2848D008DC66281DD0E3
:1010200067281BD0692821D06E2816D127E07028A8
:1010300045D0732868D0752847D078280DD14DE069
:10104000A1690B988847054625283FF469AFE169F7
:101050000B9888476D1C3FF46AAFB4E023466A469C
:101060006FF001000B99FFF7C3FA9FE045F04000D5
:101070006060A80723464FF0000236D43EE0E80740
:101080007FF447AF2068011D21600068290501D564
:1010900006701BE7290701D5068017E7A90703D5C6
:1010A000F117C0E9006111E706600FE745F0400065
:1010B0006060A80723464FF0080216D41EE040F6F1
:1010C0000E0125EA0100606016E045F04000606016
:1010D000A80723464FF00A0207D40FE045F040006E
:1010E0006060A80708D5234610226FF001000B9915
:1010F000AFF300805AE007E0234610226FF00100B2
:101100000B99FFF7CBF851E04FF000094F464B46E3
:10111000632802D05B2807D041E02079C00601D4C3
:101120000120A06001273AE06269012101989047FF
:101130005E2805D14FF00109626949460198904740
:10114000216939B900210A46534643F82120491C38
:101150000829FADBB0B3216969B9C11700EBD16284
:1011600053110AEB830122F01F02821A01200B683F
:10117000904003430B6062690121019890475D280C
:10118000E8D1B9F1000F09D00020514651F82020D4
:10119000D24341F82020401C0828F7DB02AB22464E
:1011A00000976FF001000B99FFF71EF900280CDA89
:1011B000401C08D1BBF1000F05D04FF0FF300DB03F
:1011C000BDE8F08FFFE74046F9E7E90701D108F1F4
:1011D000010806444FF0000B78E60000CCCCCC0CA4
:1011E00010B5141E73F1000408DA401C41F100012F
:1011F00092185B411A4301D120F0010010BD2DE986
:10120000F04D92469B4611B1B1FA81F202E0B0FA7C
:1012100080F220329046FFF725FE04460F4640EA52
:101220000A0041EA0B0153465A46084313D01146BF
:1012300053EA010019D0C8F140025046FEF796FF6C
:1012400005460E46504659464246FFF70BFE0843F8
:1012500005D0012004E020463946BDE8F08D00208D
:10126000054346EAE0762C4337430A986305E40ACF
:10127000A0EB08000022FD0A44EA47540A3002D5D8
:1012800000200146E9E7010510196941DDE908453B
:1012900000196941BDE8F04DA2E700007F2801D99F
:1012A000002208E0064A02EB5002C007127800D183
:1012B000120902F00F020120904008407047000020
:1012C000444A000870B58C1810F8015B15F007034C
:1012D00001D110F8013B2A1106D110F8012B03E0CF
:1012E00010F8016B01F8016B5B1EF9D12B0705D4D7
:1012F0000023521E0DD401F8013BFAE710F8013B20
:10130000CB1A921C03E013F8015B01F8015B521E3B
:10131000F9D5A142D8D3002070BDFEE7704772B660
:10132000FEE710B590F821100022022905D0042113
:10133000816380F82020012010BD01680B6823F034
:101340000E030B6001680B6823F001030B6090F83B
:101350004030C46B012101FA03F3636080F821106F
:1013600080F82020104610BD2DE9F05F90F8211084
:101370000024022903D004218163012485E001684F
:101380000A6822F00E020A6001680A6822F001026F
:101390000A603F4E3E4FB215DFF8F4C0DFF8F09020
:1013A000DFF8ECA0DFF8E8B0DFF8E4E00168783FB0
:1013B00013011502ACF1640CA9F15009AAF13C0A21
:1013C000ABF1280BAEF1140E4FF48018B14227D9BF
:1013D000B9420ED0614512D049451DD0514518D0B3
:1013E000594518D0714501D1424615E0294EB14208
:1013F00001D1012210E0274E1436B14201D1102252
:101400000AE0244E2836B14206D0224A3C329142AC
:1014100001D11A4600E02A461E49091F0A602BE046
:10142000B94213D0614517D0494522D051451DD04E
:1014300059451DD0714501D142461AE0B14202D151
:101440004FF0807215E0134EB14201D1012210E03D
:10145000104E1436B14201D110220AE00D4E28364A
:10146000B14206D00B4A3C32914201D11A4600E00B
:101470002A46074980394A60012180F8211000215D
:1014800080F82010416B01B188472046BDE8F09FED
:10149000800002400804024070B5044600F010F9D4
:1014A0000546601C02D004480078044400F008F9A6
:1014B000401BA042FAD370BD000000202DE9F84F78
:1014C000DFF8C8910024A9F1040B23460F2709F186
:1014D000040AABF1040ED1E00125A54006EA05029D
:1014E000AA4276D1DFF8A8C14E68A6EB0C08664583
:1014F0002BD00DDC032E34D005DC36B3012E19D0F1
:10150000022E2FD11BE0112E16D0122E2AD119E057
:10151000B8F5881F19D006DCB8F5803F15D0B8F5AE
:10152000801F1FD111E0B8F5001F0ED0B8F5041FC1
:1015300018D10AE0CB6815E0CB681B1D12E0CB6820
:1015400008330FE0CB680C330CE08B682BB1012B18
:101550004FF0080303D0456104E0042302E0056175
:1015600000E00023FF2A01D8064601E000F104064E
:101570004FEA840501D9A5F12005D6F8008007FAC5
:1015800005FC28EA0C0803FA05F548EA0508C6F840
:1015900000804D68ED0070D53E4DAE6946F0010605
:1015A000AE61AD6924F0030605F0010500953A4DE2
:1015B00006EB050CDCF80850A607360F07FA06F80C
:1015C00025EA0805DFF8D480404503D14FF0000834
:1015D00025E052E0DFF8C880404502D14FF0010815
:1015E0001DE0DFF8C080404502D14FF0020816E050
:1015F000DFF8B480404502D14FF003080FE0DFF878
:10160000AC80404502D14FF0040808E0DFF8A0802C
:10161000404502D14FF0050801E04FF0060808FAF6
:1016200006F848EA0508CCF808804D68D9F800604B
:10163000ED024D4601D5164300E096432E604D68FD
:10164000DAF80060AD02554601D5164300E0964336
:101650002E604D68DBF80060AD035D4601D5164392
:1016600000E096432E604D68DEF80060ED0375469D
:1016700001D5164300E096432E60641C0A681646A6
:10168000E2407FF429AFBDE8F88F00000804014074
:10169000000011100010024000000140000801404D
:1016A000000C0140001001400014014000180140EE
:1016B000001C01400AB1016170470904FBE700000A
:1016C00001488068704700000000002002488168DF
:1016D000027811448160704700000020074810B56F
:1016E000016841F010010160032000F075F80F203F
:1016F00000F006F800F024F8002010BD00200240A1
:1017000070B50D4D04464FF47A712878B1FBF0F0B6
:101710000A490968B1FBF0F000F0DCFA48B9102C76
:1017200007D200222146501E00F036F800206C60DF
:1017300070BD012070BD0000000000200C000020E2
:101740000C4808B5816941F001018161816901F0AE
:1017500001010091C16941F08051C161C06900F08F
:10176000805000900448416821F0E06141F0007130
:10177000416008BD0010024000000140002809DB64
:1017800000F01F02012191404009800000F1E0209B
:10179000C0F8001170470000F0B40E4B1B680C46F7
:1017A000C3F30223C3F10705042D00D90425191D35
:1017B000072901D2002300E0DB1E012606FA05F10D
:1017C000491E214099409E40761E16403143F0BC90
:1017D00001F0DABA0CED00E0064900F007020868F3
:1017E0004FF6FF03184040EA0220034A1043086006
:1017F000704700000CED00E00000FA052DE9F0470D
:101800000F46050061D0434E306800F00700B84233
:1018100009D2306820F0070038433060306800F0AB
:101820000700B84251D128683B4C810712D54007C8
:1018300003D5606840F4E06060602878000703D555
:10184000606840F4605060606068A96820F0F00053
:10185000084360602878C00728D06868012810D045
:101860002168022810D0890700292EDA616821F04A
:10187000030101436160FFF723FF804641F288398D
:101880000DE021688903EFE78901EDE7FFF718FF15
:10189000A0EB0801494502D90320BDE8F087606844
:1018A000696800F00C00B0EB810FEFD1306800F0F8
:1018B0000700B8420BD9306820F007003843306089
:1018C000306800F00700B84201D00120E5E7287831
:1018D000400705D56068E96820F4E060084360606F
:1018E0002878000706D56068296920F4605040EA2E
:1018F000C100606000F038F86168084AC1F3031164
:10190000515CC8400649086006480068FFF7F8FEC9
:101910000020C2E700200240001002406A4900088F
:101920000C000020040000200448054900684968B4
:10193000044AC1F30221515CC84070470C000020EA
:10194000001002407A4900080448054900684968C7
:10195000044AC1F3C221515CC84070470C0000200A
:10196000001002407A4900080E4A51680E4801F002
:101970000C03042B11D0082B0FD10C48C1F3834367
:10198000C903C05C0AD55168084AC1F34041921EA0
:10199000515C054A5043B0FBF1F07047044948439D
:1019A000704700000010024000127A005A490008F7
:1019B00000093D002DE9F84F040070D02078C04D9B
:1019C000C00749D06868C0F38100012807D0686863
:1019D000C0F38100022809D16868C00306D52868D1
:1019E000800339D560680028E7D035E06068B0F53D
:1019F000803F0BD010B1B0F5A02F11D0286820F493
:101A000080302860286820F4802002E0286840F4B4
:101A100080302860606890B1FFF752FE06460AE009
:101A2000286840F480202860F0E700BFFFF748FEF8
:101A3000801B642873D828688003F7D50CE0FFF773
:101A40003FFE064605E000BFFFF73AFE801B642814
:101A5000F0D828688003F7D420789A4E80074FF09A
:101A600001094FF0000839D5686810F00C0F07D055
:101A70006868C0F38100022809D16868C00306D4F1
:101A80002868800714D52069012808D110E0206952
:101A9000B0B1C6F80090FFF713FE074605E00AE173
:101AA000FFF70EFEC01B0228C4D828688007F7D5B0
:101AB0002868616920F0F80040EAC10028600DE064
:101AC000C6F80080FFF7FCFD074604E0FFF7F8FDCD
:101AD000C01B022823D828688007F7D42078000785
:101AE0002CD57948A169D9B1C0F80090FFF7E8FD7D
:101AF000074604E0FFF7E4FDC01B02280FD8686A20
:101B00008007F7D571484FF4FA510068B0FBF1F047
:101B1000009000BF0098411E0091FAD20EE080E0D4
:101B2000C0F80080FFF7CCFD074604E0FFF7C8FDD2
:101B3000C01B022875D8686A8007F7D42078400750
:101B400060D5E8690027C00008D4E86940F08050FB
:101B5000E861E869012700F0805000905C48016866
:101B6000C90513D40168834641F480710160FFF711
:101B7000A7FD824606E000BFFFF7A2FDA0EB0A002A
:101B800064284ED8DBF80000C005F5D5E0680128D0
:101B90000AD008B1052813D0286A20F00100286275
:101BA000286A20F0040002E0286A40F00100286260
:101BB000E06841F2883B98B1FFF782FD82460BE076
:101BC000286A40F004002862EEE700BFFFF778FDC6
:101BD000A0EB0A0159455AD8286A8007F6D50CE0CF
:101BE000FFF76EFD824605E0FFF76AFDA0EB0A01F4
:101BF00059454CD8286A8007F6D41FB1E86920F00F
:101C00008050E861E06988B36968C1F38101022905
:101C100044D00228C6F8608004D0FFF751FD044686
:101C200038E034E0FFF74CFD074604E0FFF748FDDD
:101C3000C01B02282BD828688001F7D4206AB0F591
:101C4000803F05D16868A16820F4003008436860CF
:101C5000D4E908010843696821F4741108436860F5
:101C6000C6F86090FFF72CFD044606E025E000BFB3
:101C7000FFF726FD001B022809D828688001F7D548
:101C80001BE000BFFFF71CFD001B022802D9032048
:101C9000BDE8F88F28688001F4D40EE00128F7D061
:101CA0006868226A00F48031914204D1616A00F4CC
:101CB0007010884201D00120EAE70020E8E7000028
:101CC0000010024000004242800442420C0000200A
:101CD0000070004010B5401EB0F1807F01D301209C
:101CE00010BD4FF0E02460610F21601701F04CF847
:101CF0000020A06107202061002010BD70B590F881
:101D00003C20012A2CD0012480F83C40022280F89B
:101D10003D2003685A689D6822F070060A683243C5
:101D20005A60104B02689A420ED00F4B9A420BD069
:101D3000B2F1804F08D00D4B9A4205D00C4B9A421D
:101D400002D00C4B9A4204D1496825F08003194314
:101D5000916080F83D40002180F83C10084670BD3D
:101D6000022070BD002C01400034014000040040FE
:101D700000080040000C004010B5040003D094F8A7
:101D80003D0010B107E0012010BD002084F83C00A8
:101D9000204600F01FF8022084F83D00211D206835
:101DA00000F012FD012084F8460084F83E0084F81B
:101DB0003F0084F8400084F8410084F8420084F831
:101DC000430084F8440084F8450084F83D00002076
:101DD00010BD000008B500680649884208D10648D1
:101DE000C16941F00201C161C06900F002000090C8
:101DF00008BD0000000400400010024070B5044619
:101E000090F83C000025012817D0012684F83C609A
:101E1000022084F83D002068826822F0770222F4D4
:101E20007F4282600868502838D00DDC20284FD0CF
:101E300005DC90B3102811D14AE0022070BD302893
:101E400046D040280AD13BE060282FD070280DD022
:101E5000B0F5805F03D0B0F5005F12D0012584F8A3
:101E60003D60002084F83C00284670BDCB68D1E975
:101E70000121206800F003FD2068816841F07701AE
:101E800009E0CB68D1E90121206800F0F8FC206866
:101E9000816841F480418160E1E719E0CA684968DE
:101EA000206800F0C1FD5021206806E0CA6849683A
:101EB000206800F0CAFD6021206800F0EAFCCEE74F
:101EC000CA684968206800F0AFFD40212068F4E747
:101ED000226801461046F0E700B585B00021009168
:101EE00001910291039100680F4988421AD10F486D
:101EF000816941F0100181618069694600F010003C
:101F00000490802000900220019003900848FFF781
:101F1000D5FA0848416821F4406141F0E06141F49C
:101F20004061416005B000BD000400400010024067
:101F3000001001400000014070B5044690F83C00DC
:101F400000260D4601280FD0012084F83C006AB11C
:101F5000042A1DD0082A2FD00C2A3FD001260020A9
:101F600084F83C00304670BD022070BD206800F04F
:101F700099FC2068816941F00801816120688169CC
:101F800021F004018161206881692A69114311E00F
:101F9000206800F0B7FC2068816941F4006181612C
:101FA0002068816921F480618161206881692A69E2
:101FB00041EA02218161D2E7206800F0D9FC206863
:101FC000C16941F00801C1612068C16921F00401C3
:101FD000C1612068C1692A69114311E0206800F0DD
:101FE000FBFC2068C16941F40061C1612068C169DE
:101FF00021F48061C1612068C1692A6941EA022136
:10200000C161ACE710B5040003D094F83D0010B1F5
:1020100007E0012010BD002084F83C00204600F0BD
:102020001EF8022084F83D00211D206800F0CCFB42
:10203000012084F8460084F83E0084F83F0084F8CC
:10204000400084F8410084F8420084F8430084F89A
:10205000440084F8450084F83D00002010BD70471E
:1020600010B50446022249B104290ED0082913D024
:1020700094F84100012816D0012010BD94F83E00CC
:102080000128F9D184F83E200FE094F83F000128A0
:10209000F2D184F83F2008E094F840000128EBD109
:1020A00084F8402001E084F841200122206800F0FB
:1020B000D9FB13492068134A884201D0904203D1CA
:1020C000436C43F400434364206888420DD090423F
:1020D0000BD0B0F1804F08D00B49884205D00B4996
:1020E000884202D00A49884204D1816801F0070180
:1020F000062903D0016841F001010160002010BDF4
:10210000002C014000340140000400400008004061
:10211000000C004070477047F8B501680446086835
:10212000CA684B6910F00F0F4FF0000559D003F04B
:10213000010602F49077374365D0C10705D0D10579
:1021400003D5616C41F001016164410705D5D907F0
:1021500003D0616C41F002016164810705D5D907A4
:1021600003D0616C41F004016164010707D502F0FE
:102170002001314303D0616C41F008016164616C5E
:1021800000293AD0800604D5900602D5204600F0FA
:102190009DFC20684069616CC0F38010090700D481
:1021A00060B3204600F06BFC20684069400621D5F2
:1021B0002068143050E8001F21F0400140E8001270
:1021C000002AF5D1E06BA8B16D494163E06BFFF7E0
:1021D000CBF8002811D0E06B416B01B0BDE8F040B6
:1021E000084783060FD593060DD52046BDE8F84075
:1021F00000F06CBC2046FFF78EFFF8BD2046FFF7CD
:102200008AFF6564F8BD266B2023012E7CD1C606AB
:102210007AD5D60678D508684868009048694FF0A6
:102220000206400640D5E16B086840680004000CD7
:10223000E8D0A28D8242E5D9E085886920282DD09A
:1022400020680C3050E8001F21F4807140E8001233
:10225000002AF5D12068143050E8001F21F0010158
:1022600040E80012002AF5D12068143050E8001F21
:1022700021F0400140E80012002AF5D184F84230F4
:10228000256320680C3050E8001F21F0100140E861
:102290000012002AF5D1E06BFFF743F86663A08DCA
:1022A000E18D401A81B22AE0A08DE18D401A81B201
:1022B000E08D0028A6D00029A4D022680C3252E874
:1022C000000F20F4907042E80007002FF5D120683D
:1022D000143050E8002F22F0010240E80027002FC0
:1022E000F5D184F84230256320680C3050E8002F87
:1022F00022F0100240E80023002BF5D1666320464F
:10230000FFF708FFF8BDFFE705062BD5150629D511
:1023100094F841002128F5D1A068B0F5805F01D183
:102320002069B0B1206A411C2162216800784860B0
:10233000E08C401E0004000CE084E3D12068C168FA
:1023400021F08001C1602068C16841F04001C16096
:10235000D8E7206A0088C0F308004860206A801C23
:102360002062E5E74006CDD55006CBD5CA682046A9
:1023700022F04002CA6084F8413000F013F9C1E74E
:102380006F2A000870B5040004D094F841000025BD
:1023900010B106E0012070BD84F84050204600F0E6
:1023A00023F8242084F841002068C16821F40051FA
:1023B000C160204600F0ECFB2068016921F49041E7
:1023C00001612068416921F02A0141612068C168EA
:1023D00041F40051C1606564202084F8410084F814
:1023E00042006563002070BD70B586B00024009483
:1023F00001940294039403682B482A4E022103227D
:102400000515B34221D1836943F480438361836915
:1024100003F480430493836943F004038361806978
:10242000224E00F0040004900802CDE9000103925E
:1024300069463046FFF742F8CDE900546946304618
:102440000294FFF73BF806B070BD194EB342FAD1C3
:10245000C36943F48023C361C36903F480230493F5
:10246000836943F0080383618069CDE9005100F07E
:102470000800CDE903200F4D69462846FFF71EF8F6
:10248000E814CDE90004694628460294FFF716F8DF
:10249000002211462720FFF77FF92720FFF76EF96A
:1024A000D1E7000000380140001002400008014060
:1024B00000480040000C014090F84230202B01D031
:1024C0000220704721B11AB10023036300F0BCBBA6
:1024D0000120704710B50068074988420BD10122DE
:1024E0000649002001F038FBBDE8104001220349F5
:1024F0000348FFF7E1BF10BD004800401C0000206A
:10250000A80500202DE9F843044690F841009846BC
:1025100016460D46202802D00220BDE8F88385B17A
:102520007EB100206064212084F84100FFF7C8F8E4
:10253000A6848146E684A0682027B0F5805F02D09B
:1025400003E00120E9E7206910B12E4600250EE0E6
:1025500000260CE08021204600F091FBA8B9C6B10E
:1025600016F8010B21684860E08C401EE084E08C86
:102570004B464FF00002CDF800800028EAD14FF022
:102580004001204600F07BFB40B184F841700320FD
:10259000C3E735F8020BC0F30800E3E784F84170A5
:1025A0000020BAE77047FEE72DE9F04186B000242D
:1025B00024480094019402940394816941F020011D
:1025C0008161816901F020010491816941F0040178
:1025D0008161816901F004010491816941F0080180
:1025E0008161816901F008010491816941F0100164
:1025F00081618069144F00F01000049000221021C6
:102600003846FFF757F8DFF8448001224021404662
:10261000FFF750F8102001250226CDE90005CDE98D
:10262000024669463846FEF749FF4020CDE90005DD
:10263000CDE9024669464046FEF740FF06B0BDE8D8
:10264000F08100000010024000080140001001402D
:1026500010B58EB000240794089409940A940B9442
:102660001C2168460C94FDF7AAFD1F481D49016016
:1026700040F2CF21C0E901146321C0E90314802195
:102680008161FFF779FB08B1FEF749FE4FF48050F6
:10269000079007A91448FFF7B1FB08B1FEF73FFE0A
:1026A0001148FFF7AFFC08B1FEF739FE0B940BA9F8
:1026B0000D480C94FFF722FB08B1FEF730FE6020B6
:1026C000CDE90004022002900422694604940648E1
:1026D000FFF732FC08B1FEF722FE0348FFF7FCFBD0
:1026E0000EB010BD00040040180500200C4810B5C5
:1026F0000A4901604FF4E1314160002181600C2200
:10270000C160C0E904128161C161FFF73BFE00288E
:1027100003D0BDE81040FEF702BE10BD00380140F6
:10272000600500200C4810B50A4901604FF4E13102
:102730004160002181600C22C160C0E90412816106
:10274000C161FFF71FFE002803D0BDE81040FEF76F
:10275000E6BD10BD00480040A8050020FEE7FEE7EA
:1027600070477047FEF7B2BF30B58FB0282168467A
:10277000FDF725FD14210AA8FDF721FD012108041C
:10278000CDE900100024029402250491CDE9075000
:102790004FF4E01009906846FFF70CF908B172B6E3
:1027A000FEE70F20CDE90A054FF48060CDE90C402B
:1027B00002210AA80E94FFF721F8002801D072B672
:1027C000FEE70FB030BD7047F0B50268204C214DD8
:1027D000214E224F224B4FF0804CA04209D098420C
:1027E00007D0604505D0A84203D0B04201D0B8421E
:1027F00004D122F0700E4A6842EA0E02A04209D0CB
:10280000984207D0604505D0A84203D0B04201D01D
:10281000B84203D122F44075CA682A434D6922F0B8
:1028200080022A4302608A68C2620A688262A04209
:1028300001D0984201D10969016301214161016917
:10284000C90703D0016921F001010161F0BD000059
:10285000002C01400004004000080040000C004033
:102860000034014010B501F01F030121046A9940B2
:102870008C430462016A9A401143016210BD10B595
:10288000846842EA032224F47F440A43224382609C
:1028900010BD826822F070020A4342F00701816095
:1028A00070470000F0B5036A026A22F0010202627A
:1028B00042688469124E24F073050C682C4323F09F
:1028C00002058B682B430D4DA84201D0B04205D1C3
:1028D00023F00807CB683B4323F00403A84201D050
:1028E000B04205D14D6922F4407215438A692A43EA
:1028F00042608461496841630362F0BD002C01407D
:1029000000340140F0B5026A036A23F01003036249
:10291000436884690D6824F4E64444EA05248D681C
:1029200022F0200242EA05120F4D104EA84201D0BB
:10293000B04206D1CF6822F0800242EA071222F0AC
:102940004002A84201D0B04207D14D6923F4406350
:1029500043EA85038D6943EA8503436084614968DE
:1029600081630262F0BD0000002C01400034014090
:10297000F0B5026A036A23F4807303624368C46992
:1029800022F4007224F073050C68124E2C438D68FB
:1029900042EA05220E4DA84201D0B04206D1CF68CE
:1029A00022F4006242EA072222F48062A84201D0A7
:1029B000B04207D14D6923F4405343EA05138D69B2
:1029C00043EA05134360C4614968C1630262F0BD14
:1029D000002C01400034014030B5046A026A22F440
:1029E000805202624268C3690D6823F4E64343EAF9
:1029F00005238D6824F4005444EA0534084DA842A8
:102A000002D0084DA84204D14D6922F4804242EA26
:102A100085124260C36149680164046230BD0000F0
:102A2000002C01400034014010B5036A046A24F010
:102A300001040462846924F0F00444EA021423F0DF
:102A40000A020A438461026210BD10B5036A046A77
:102A500024F010040462846923F0A00324F4704479
:102A600044EA023243EA01118261016210BD10B5ED
:102A7000406A0021C185C184FFF74DFB10BD01688C
:102A80000C3151E8002F22F4907241E80023002B12
:102A9000F5D10168143151E8002F22F0010241E81C
:102AA0000023002BF5D1016B012909D101680C31FC
:102AB00051E8002F22F0100241E80023002BF5D14D
:102AC000202180F8421000210163704708B590F87A
:102AD0004210222901D0022008BD82684FF48053A1
:102AE0009A4201D1016921B1816A9A421BD04AB14F
:102AF0000AE00268816A5268C2F308020A80816AA9
:102B0000891C08E0026972B10268526802F07F0213
:102B10000A70816A491C8162C18D491E0904090C31
:102B2000C18503D01BE002685268F1E70168CA68FA
:102B300022F02002CA600168CA6822F48072CA606A
:102B400001684A6922F001024A61202180F842109E
:102B500000214163026B012A03D0FFF7BBFC002078
:102B600008BD016301680C3151E8002F22F010020A
:102B700041E80023002BF5D101680A68D20602D58E
:102B80000A6849680091818DFFF7C4FAE7E7000001
:102B900070B5044600680169E26821F440511143B0
:102BA00001612169A0680843616908432168CA6816
:102BB00041F20C639A430243CA6020684169A269EA
:102BC00021F44071114341611E492068884202D1BD
:102BD000FEF7BAFE01E0FEF7A7FE00EBC00101EB35
:102BE0000012606864218000B2FBF0F3B3FBF1F3E4
:102BF0006FF018067343B2FBF0F5B2FBF0F605EB8D
:102C00008305322303EB0515B5FBF1F5B6FBF1F6B1
:102C100005F0F00505EB0615B2FBF0F6B2FBF0F09F
:102C2000B0FBF1F06FF01802504306EB800003EBAD
:102C30000010B0FBF1F0216800F00F00284488601C
:102C400070BD00000038014081628285C28500218C
:102C50004164222180F84210016921B10168CA68EB
:102C600042F48072CA6001684A6942F001024A6116
:102C70000068C16841F02001C160002070472DE963
:102C8000F843984617460D460446089E24E0701CFB
:102C900022D0FEF715FDA0EB0800B0421AD8CEB145
:102CA0002068C168490717D5802D15D0402D13D055
:102CB0000168C94309070FD40168002540680090E6
:102CC0002046FFF7DCFE0820606484F840500120B5
:102CD000BDE8F8830320FBE72068006835EA0000C0
:102CE00004D00020B842D2D00020F1E70120F9E75B
:102CF0000148FFF711BA0000A8050020FEE7000018
:102D00000FB4054B10B503A9044A029800F026F948
:102D100010BC5DF814FB0000D93E0008140500202B
:102D20000FB47CB50C0009AD01D0611E00E000219C
:102D3000CDE90001064B6A462946089800F00EF9D5
:102D4000002C02D0009A002111707CBC5DF814FBAD
:102D5000633600087CB50C001D461646014601D0BE
:102D6000601E00E00020CDE90010064B6A462946AF
:102D7000304600F0F3F8002C02D0009A00211170C8
:102D80007CBD0000633600080907090E002804DB3B
:102D900000F1E02080F80014704700F00F0000F10F
:102DA000E02080F8141D704702E008C8121F08C117
:102DB000002AFAD170477047002001E001C1121FBC
:102DC000002AFBD1704700002DE9FF5F82B000218F
:102DD000DDE90430020DDDF840B0034318D044F6BD
:102DE0001050A2F2FF3242431514119801281FD04F
:102DF000A5EB0B00401C5FEA000A4FF000064E4FA7
:102E0000DFF83891B046504615D5CAF1000413E0FA
:102E1000119801244AA3012801D16FEA0B010298FD
:102E2000119AC0E90031C0E9024206B0BDE8F09F46
:102E3000CBF10000DFE704460021404A491842EB8D
:102E40000450CDE9001012E0E00707D032463B46BF
:102E500040464946FDF7BAFE8046894632463B4623
:102E600010461946FDF7B2FE06460F466410002CC8
:102E7000EAD1DDE90401DDE90023BAF1000F06DA49
:102E8000FDF7A4FE42464B46FDF7A0FE05E0FDF728
:102E90000FFF42464B46FDF70BFF04460E4600224D
:102EA000284BFDF799FF03D84FF0FF30014607E0AC
:102EB0000022254B20463146FDF7E1FDFDF773FF6B
:102EC000102409E0002C0ADB0A220023FDF72DFD67
:102ED000039B30321A55641E50EA0102F2D1641C81
:102EE000039AC4F111031444119A012A03D0012258
:102EF00008430DD10AE0084304D000204FF0110B25
:102F0000119072E7A3EB0B056D1E0DE05B4504DD30
:102F10004FF0000205F1010504E003DA4FF0000272
:102F2000A5F10105002AECD002981199C0E90231FF
:102F3000C0E9004579E70000000014400000F03FC0
:102F4000300000000000F0430000E03F30380A2865
:102F500001D2012070470020704700002DE9FF4F8B
:102F600095B09A46884606460025EEE1252877D199
:102F700000242746F94A0121039400E0044316F88F
:102F8000013F203B01FA03F01042F7D130782A28A4
:102F900011D06FF02F033078A0F13002092A16D833
:102FA000039A44F0020402EB820203EB4202104453
:102FB000761C0390EFE758F8042B0392002A03DAFB
:102FC000504244F40054039044F00204761C3078DC
:102FD0002E2816D116F8010F44F004042A280DD02B
:102FE0006FF02F023078A0F13003092B09D807EBDE
:102FF000870302EB4303C718761CF3E758F8047BFA
:10300000761C30786C280FD006DC4C2817D0682846
:103010000DD06A2814D104E0742810D07A280FD17A
:103020000DE044F400140AE044F4801401E044F498
:1030300040147278824202D104F58014761C761C0A
:10304000307866280BD013DC582877D009DC0028AC
:1030500075D04528F6D04628F4D047281AD193E1F8
:1030600018E0632835D0642879D0652812D18BE127
:10307000702873D008DC6728F1D069286FD06E28DB
:103080000DD06F2806D1ACE073282CD0752874D0F1
:10309000782853D05246179990476D1C54E1C4F3D9
:1030A0000250022809D003280DD0D8F800100428B7
:1030B0000DD00D6008F1040846E1D8F80010EA17B9
:1030C000C1E90052F6E7D8F800100D80F2E70D7064
:1030D000F0E718F8041B8DF8001000208DF80100AF
:1030E000EB46012003E058F804BB4FF0FF306107C6
:1030F0004FF0000102D40DE009F101018946B94207
:103100000FDA8145F8DB1BF809100029F4D108E03B
:1031100009F1010189468142FADB1BF809100029F7
:10312000F6D103985346A0EB090721463846179A73
:1031300000F080FA284400EB090507E044E008E1CC
:103140000DE01BF8010B524617999047B9F10109A0
:10315000F7D2534621463846179AF2E039E00A2161
:10316000C4F302524FF0000B0091022A06D058F827
:10317000040BC117032A09D00AE023E008F1070075
:1031800020F00702F2E80201904605E000B2C11704
:10319000042A01D140B2C117002906DA0A460021EB
:1031A000404261EB02012D2202E0220504D52B22D0
:1031B0008DF80420012203E0E20701D02022F7E786
:1031C000914657E00A2100E010214FF0000B0091DA
:1031D0000BE010214FF0000B44F00404082700918D
:1031E00003E008204FF0000B0090C4F30252022AC3
:1031F00005D058F8040B0021032A08D008E008F194
:10320000070020F00702F2E80201904603E080B2D6
:10321000042A00D1C0B24FF0000922072AD5327823
:10322000702A07D0DDF800C08CF0100C5CEA0B0CA3
:1032300005D00EE040228DF80420012208E050EA7B
:10324000010306D030238DF804308DF805200222CA
:103250009146009B83F0080353EA0B030AD150EA1E
:10326000010201D1620705D530228DF804204FF00C
:1032700001097F1E3278582A04D039A20C920CAA78
:1032800002920BE03BA2F9E75B46009AFDF74DFB8B
:103290000C9B9B5C029A521E0292137050EA010230
:1032A000F2D1029804A9081A00F1200B600702D598
:1032B00024F4803400E001275F4502DDA7EB0B001A
:1032C00000E0002000EB0B01009003984944401AF5
:1032D0000390E00306D453462146179A039800F062
:1032E000A9F90544002706E001A85246C05D1799D8
:1032F00090476D1C7F1C4F45F6DBE0030CD5534611
:103300002146179A039800F095F9054404E030200F
:103310005246179990476D1C0099481E009000294D
:10332000F5DC08E00298029952460078491C0291A7
:10333000179990476D1CBBF10001ABF1010BF1DC5B
:103340005BE100F065F90544761C307800287FF4D5
:103350000DAE19B02846BDE8F08F00000928010025
:1033600030313233343536373839616263646566FB
:1033700000000000303132333435363738394142BD
:103380004344454600000000600700D4062708F1CA
:10339000070020F00700F0E80223804603F0004C0D
:1033A0005FEA0C0001D097A009E0200501D596A0A6
:1033B00005E0E00701D095A001E0AFF24C001390CA
:1033C000307823F0004365280CD006DC452809D06E
:1033D00046281DD047287FD13BE0662818D06728B3
:1033E0007AD136E00021112F01DB112000E0781C9A
:1033F000CDE9000104A90CA8FFF7E6FCDDE90D0109
:103400000C9A4FF0000B07F10109109200914EE069
:103410004FF000400097CDE9011004A90CA8FFF778
:10342000D3FCDDE90D020C9B0F994FF0000B914688
:103430001093009211B9791C00EB0109B7EB090058
:1034400003D4C0F1FF3B07F10109A9EB070001908C
:1034500042E0012F00DA01270021112F01DD1120A8
:1034600000E03846CDE9000104A90CA8FFF7ACFC48
:10347000DDE90D010C9A00914FF0000BB946109256
:1034800021070FD4009A4A4503DA914601E0A9F1D9
:103490000109B9F1010F05DD109AA9F10101515C93
:1034A0003029F4D0B84202DA10F1040F03DA012116
:1034B000CDE9011010E0002803DC8344A9EB0001F2
:1034C00002E0411C494500DD8946A0EB0B00401C91
:1034D00001904FF000400290200705D40198484524
:1034E00002DB4FF0FF30019000208DF84B00029876
:1034F0000DF14B07B0F1004F25D002200C902B208E
:103500000D90029800280CDA404202902D200D9078
:1035100007E00A210298FDF7F2F93031029007F82E
:10352000011D0C99481E0C900029F2DC029800281D
:10353000EFD1791E0D980870307800F0200040F02F
:10354000450007F8020D11A8C01BC01D029013987A
:10355000007800B1012000EB0901019801EBE07156
:10356000029801440398401A401E0390E00306D4D9
:1035700053462146179A039800F05CF805441398C7
:10358000007818B15246179990476D1CE00323D577
:1035900053462146179A039800F04CF805441BE067
:1035A000BBF1000F07DB0098584504DD1098179910
:1035B00010F80B0001E0179930205246904701980F
:1035C0000BF1010B401E05F10105019004D12E20E5
:1035D0005246179990476D1CB9F10001A9F10109F4
:1035E000DEDC05E017F8010B5246179990476D1C79
:1035F0000299481E02900029F4DC53462146179A8E
:1036000003989EE62D0000002B0000002000000023
:103610002DE9F041044600251E461746880404D4CF
:1036200005E039462020B0476D1C641EF9D52846B8
:10363000BDE8F0812DE9F041044600251E46904684
:10364000C80301D5302700E02027880404D505E011
:1036500041463846B0476D1C641EF9D52846BDE882
:10366000F0814A68002A06D00A68531C0B6010706B
:103670004868401E4860704708B51649A1F120000F
:1036800000F0E8FB014614A0FFF73AFB1148114B8C
:1036900020302033008C03F16202A2F1200100905F
:1036A000A1F1200000F010FB014614A0FFF728FB59
:1036B00000211B4800F09AFB01461AA0FFF720FBEF
:1036C0000021224800F092FB0146BDE8084015A009
:1036D000FFF716BB3E0000205B45535038323636AC
:1036E0005D5B776966695D20636F6E6E65637420EC
:1036F000636F64653A2025640D0A00005B455350F2
:10370000383236365D5B6D7174745D20636F6E6E3A
:1037100065637420636F64653A2025640D0A0000B8
:10372000400300205B455350383236365D5B6D7187
:1037300074745D2073756273637269626520636F70
:1037400064653A2025640D0A000000004002002054
:10375000002400F081FE04212848FEF781FC00F0DF
:10376000AFF9002000F066FA014625A0FFF7C8FA7D
:10377000FFF782FF3225002000F094F9FF282BD0BC
:10378000002000F097F906460146244A244800F03C
:10379000DBFB90B9214800F0D7FD2249A1F58070EC
:1037A00000F0FCFB48B91F48203000F0FDFD58B187
:1037B0001DA2C8211B4800F08DFD184A31461D4846
:1037C00000F0C2FB10B104E01BA2F2E7134800F0C6
:1037D000BBFD002000F038F8B4FBF5F005FB10400D
:1037E00028B900F095FB0521164800F0B1FC641CD7
:1037F000A4B26420FDF750FEBDE7000018050020CC
:103800005B455350383236365D20696E69742063EB
:103810006F64653A2025640D0A000000F00900205D
:1038200040030020700B0020757365725F65727233
:103830000000000040020020757365725F737563BD
:1038400063000000C003002010B5044605484FF493
:10385000007100EB4420FCF7B2FC0349002021F882
:10386000140010BDF0050020120000200FB42DE957
:10387000F04780461A48894600EB48244FF4007709
:10388000154639462046FCF79AFC16480CAE00EB6C
:103890000515204614A239462B68FFF741FA204649
:1038A000FCF7C0FCC0F500772046FCF7BBFC2044C9
:1038B000334639460B9AFFF74DFA2046FCF7B2FC27
:1038C000A0F58071FF3909D02B4621464A46404673
:1038D00000F00CF8BDE8F0075DF814FB0320F9E7F1
:1038E000F007002084490008257300002DE9FF5FE0
:1038F0001E46904607464FF0000B012400F012F9D7
:103900003D484FF0000A00EB472564E03846FFF7DA
:103910009BFF0198FCF786FC82B23846019900F0C3
:1039200011F9022235A1384600F00CF90BF1010023
:1039300000F0FF0B706818B100F0F6F8814628E03F
:10394000B08900F0EDF82EA00199FFF7D9F9B8F190
:10395000000F01D0C8F80050002445E0708900F045
:10396000DFF82F4830F81710090412D530F8171077
:10397000C1F30E0120F8171028467168FCF72AFCE5
:1039800030B1B8F1000F01D0C8F8005000240DE0AC
:10399000022400F0C9F8B189A0EB09008842DDD902
:1039A00024B1012C07D0022C0BD010E014A00199F7
:1039B000FFF7A6F918E059461AA0019AFFF7A0F9F7
:1039C00005E02B46594623A0019AFFF799F90AF121
:1039D000010000F0FF0A317A514597D824B13946E9
:1039E00028A0019AFFF78CF9384600F09CF804B043
:1039F0002046BDE8F09F0000F00500200D0A000001
:103A00001B5B33326D5B41545D5B535543435D201B
:103A1000434D443A25730D0A1B5B306D00000000D6
:103A2000120000201B5B33336D5B41545D5B5741DB
:103A3000524E5D5B256868755D20434D443A2573A1
:103A40002C2054494D45204F55540D0A1B5B306DB9
:103A5000000000001B5B33316D5B41545D5B5741DF
:103A6000524E5D5B256868755D20434D443A257371
:103A70002C20524543563A2025730D0A1B5B306DAE
:103A8000000000001B5B33316D5B41543A25645DDF
:103A90005B4552525D20434D443A25730D0A1B5B32
:103AA000306D00000249FF230A5C0B54104670473A
:103AB00010000020014901EB40207047F005002074
:103AC0002DE9F05F144FDFF85490002426464FF4A0
:103AD000007507F500784FF0FF0AA9F1020B00BF4F
:103AE00007EB44202946FCF76AFB08EB44202946F3
:103AF000FCF765FB29F814600BF804A0641C14F0B3
:103B0000FF04EDD00024204600F010F8641C14F0EF
:103B1000FF04F8D0BDE8F09FF0050020120000205F
:103B2000FDF7BABC70477047FDF7CABD002804D145
:103B3000024901220248FEF7BFBC70471C0000206A
:103B4000A8050020002804D14FF47A730148FEF73D
:103B5000D9BC7047A80500202DE9F047264D044642
:103B6000174635F81400C0F30E0000EB0708B8F54F
:103B7000007F08D3002025F814002146BDE8F04757
:103B80001EA0FFF7BDB8DFF8A4903A4609EB442623
:103B90003044FCF7FBFA35F81400384425F81400DB
:103BA00031781FFA88F03E290AD0022822D9304401
:103BB00010F8011C0A291DD110F8020C0D2819D18A
:103BC000DFF86C80002609EB442700BF58F8261068
:103BD0003846FCF7FFFA20B9761CF6B2022EF5D370
:103BE000FF260548801E065535F8140040F40040B5
:103BF00025F81400BDE8F087120000201B5B33316C
:103C00006D5B41543A25645D5B4552525D205245DF
:103C1000435620425546464552204F564552464C43
:103C20004F57210D0A1B5B306D000000F00500208E
:103C30001400002070B500250646012415A3224675
:103C400029462846FFF712FEE8B90224012E11A3E7
:103C500006D0022200210846FFF708FE98B901E0CD
:103C60000322F7E7002103240AA301220846FFF7F5
:103C7000FDFD40B90424002107A322460846FFF7B2
:103C8000F5FD002805D02A46214604A0FFF738F8A4
:103C9000204670BD00000000300000005B4553501E
:103CA000383236365D5B4552524F525D20696E693F
:103CB00074206572723A25642C20726563763A200E
:103CC0002573200D0A000000FEB5089F8DE807004F
:103CD00000251E4601240CA3072229462846FFF78B
:103CE000C5FD50B9002102240EA308220846CDE9E3
:103CF0000067FFF7BBFD002805D02A4621460CA02F
:103D0000FEF7FEFF2046FEBD302C312C222573220B
:103D10002C222573222C222573222C302C302C228D
:103D200022000000302C222573222C25642C310027
:103D30005B455350383236365D5B4552524F525DCB
:103D4000206D7174745F636F6E6E6563742065724D
:103D5000723A25642C20726563763A202573200D13
:103D60000A0000007FB50E46089903918DE80D000A
:103D7000002501240BA30A2229462846FFF776FDD9
:103D800040B900210BA30B2208460096FFF76EFDF9
:103D9000002805D02A46214607A0FEF7B1FF20469D
:103DA00004B070BD302C222573222C25642C256490
:103DB0002C256400257300005B455350383236369D
:103DC0005D5B4552524F525D206D7174745F70752A
:103DD000626C697368206572723A25642C20726582
:103DE00063763A202573200D0A0000007CB500257B
:103DF000CDE90001012407A3092229462846FFF73F
:103E000035FD002805D02A46214605A0FEF778FF9B
:103E100020467CBD302C222573222C256400000016
:103E20005B455350383236365D5B4552524F525DDA
:103E3000206D7174745F737562736372696265205B
:103E40006572723A25642C20726563763A20257378
:103E5000200D0A002DE9FC4100250E4607460124ED
:103E60000CA3052229462846FFF700FD50B9CDE9ED
:103E700000760021022408A306220846FFF7F6FC7C
:103E8000002805D02A46214606A0FEF739FF204625
:103E9000BDE8FC8131000000222573222C2225730D
:103EA000220000005B455350383236365D5B455288
:103EB000524F525D20776966695F636F6E6E65630E
:103EC00074206572723A25642C20726563763A20FC
:103ED0002573200D0A00000013B54FF6FF73012271
:103EE00069460248FEF70EFB00981CBD60050020E5
:103EF000FDF7F4FBFEF738FCFEF756FBFEF7F6FB8A
:103F0000FEF710FCFEF7A4FBFFF722FCFEE7000023
:103F100070B50A4C0A4D2946606AFCF785FC0646D6
:103F200060622946A06EFCF77FFCA06605488642C9
:103F300002DD00206062A06670BD0000C0030020AA
:103F4000CDCCCC3D000020422DE9F0470026924622
:103F500081460D46B0460A2718E002260A21284667
:103F6000FCF756F9040001D084F800804946284641
:103F7000FCF730F938B104B127705146284600F0FB
:103F8000A5F8064606E02CB12770651C15B1287807
:103F90000028E2D13046BDE8F0870000F0B50C46BD
:103FA000054689B064212046FCF709F935A1284669
:103FB000FCF710F900283AD0224634A1801DFCF706
:103FC00051F934A12846FCF705F9050032D004F177
:103FD000200216462DA105F10B00FCF743F93046EF
:103FE000FCF720F928443A210B30FCF711F900289E
:103FF00046D06A462AA1401CFCF734F92C4F002514
:1040000005EB051007EB80003146FCF712F998B17B
:104010006D1C052DF4D300BF94F8401004F144004A
:1040200005292DD2DFE801F0111F1F2228000120F1
:1040300009B0F0BD0220FBE705EB051007EB80009F
:1040400090F8200084F84000E6E71AA16846FCF7E3
:10405000F0F828B119A16846FCF7EBF808B10FE0B9
:10406000012060640CE0024616A101E0024616A1A0
:104070006846FCF7F7F803E01F226946FCF7BCF836
:104080000020D5E7226964223A2200002533315B03
:104090005E225D0022706172616D73223A7B2200A4
:1040A0002531355B5E2C7D20090A0D5D0000000086
:1040B000C0030020747275650000000066616C73B7
:1040C0006500000025640000256600002DE9F04130
:1040D0000D4604464FF4C0712846FCF770F82421C1
:1040E0002046FCF795F806002AD02C21FCF790F822
:1040F000070027D0BC1B802C00D37F2422463146EA
:104100002846FCF779F800262E557B213846FCF727
:104110007FF8070018D07D21FCF799F8B0B1C41BD7
:10412000641CFF2C00D9FF242246394605F180008B
:10413000FCF762F8281980F880600020BDE8F08163
:104140000120FBE70220F9E70320F7E70420F5E769
:104150002DE9FC470F4681464FF4807421464348C1
:10416000FCF72DF842A221464048FEF7D9FD04464F
:10417000FF2848D800263D4D3AE046B1C4F580718D
:10418000281941A2FEF7CCFD0444FF2C3BD806EBD6
:10419000061109EB81039846C4F5807128193BA2EA
:1041A000FEF7BEFD0444FF2C2DD898F8200005280A
:1041B00050D2DFE800F0032D343B480098F824008B
:1041C000012823D035A300BFC4F58071281935A27A
:1041D000FEF7A6FD0444FF2C15D8C4F580712819FC
:1041E00031A2FEF79DFD0444FF2C0CD8761CF6B2DC
:1041F000BE42C2D3C4F5807128192CA2FEF790FDEF
:104200002044FF2828D9FF20BDE8FC8728A3DBE74E
:10421000C4F58071281928A2D8F82430D8E7C4F54D
:104220008071281925A2D8F82430D1E7D8F82400C5
:10423000FCF752FBCDE90001C4F58071281920A2DA
:10424000FEF76EFDC6E708F12403C4F58071281956
:104250001DA2BDE7FE20D7E70021801C82B20B46DD
:10426000009102491A48FFF77DFDCDE7D40B0020ED
:104270007B226964223A22313233222C227061720D
:10428000616D73223A7B00002C000000222573220E
:104290003A7B2276616C7565223A000066616C7328
:1042A00065000000257300007D0000007D7D00009A
:1042B000747275650000000025750000256400001B
:1042C000252E316600000000222573220000000028
:1042D000C00100202DE9FC410C4606464FF48077D2
:1042E000154639460D48FBF76AFF33460CA239469E
:1042F0000A48CDE90045FEF713FD084D114C28464C
:10430000FBF790FF0021801C82B20B4600912946EA
:104310002046FFF727FDBDE8FC810000D40B0020FC
:104320007B226964223A222573222C22636F646502
:10433000223A25642C226D7367223A222573227D4E
:1043400000000000C002002010B5044609A0FEF7DE
:10435000D7FC09A0FEF7D4FC21460DA0FEF7D0FC47
:1043600004F180010DA0FEF7CBFCBDE8104001A0D8
:10437000FEF7C6BC0D0A00006D7174742067657489
:1043800020746F70696320646174613A0D0A0000E3
:10439000746F7069633A25730D0A0000646174617B
:1043A0003A25730D0A00000070B504461CA1FBF706
:1043B00040FF1D4D70B994F8240085F8AC0094F8C6
:1043C0002400012801D0012200E0002240211748EA
:1043D000FDF770F916A12046FBF72BFF50B9606A74
:1043E000C5F8F00014A0616AFEF78AFC1749606AFC
:1043F0000968886316A12046FBF71BFF58B914F81B
:10440000240F85F834012078012806D000221021DD
:104410001048FDF74FF9002070BD0122F7E70000BA
:104420004C45443100000000C00300200010014052
:104430004C454432000000005B4C4544325D207620
:10444000616C75653A2025640D0A0000180500208E
:104450004A4451000008014010B525A0FEF750FC69
:1044600024A0FEF74DFC33A0FEF74AFC40A0FEF767
:1044700047FC4DA0FEF744FC59A0FEF741FC66A0A6
:10448000FEF73EFC72A0FEF73BFC71A0FEF738FC85
:104490007DA0FEF735FC8AA0FEF732FC97A0FEF760
:1044A0002FFCA3A0FEF72CFCB0A0FEF729FCBFA0B8
:1044B000FEF726FCC848FEF723FCC8A2CAA1CDA07F
:1044C000FEF71EFCD7480368001F0268001F016842
:1044D000D5A0FEF715FC07A0FEF712FCDC48FEF79E
:1044E0000FFCDCA0FEF70CFCE9A0FEF709FCEDE1F7
:1044F0000D0A00003D3D3D3D3D3D3D3D3D3D3D3DC9
:104500003D3D3D3D3D3D3D3D3D3D3D3D3D3D3D3DDB
:104510003D3D3D3D3D3D3D3D3D3D3D3D3D3D3D3DCB
:104520003D3D3D3D3D3D3D3D3D3D3D3D3D3D090D1F
:104530000A000000202020202020202020202020F1
:10454000202020202020202020202020202020206B
:10455000202020202020202020202020202020205B
:10456000202020202020202020090D0A000000000B
:104570000923232020202020202023232020202046
:104580002323202020202020202020232323232019
:1045900020232323232323232020232323232323F4
:1045A000232320090D0A0000092323202020202096
:1045B00020202023232020232320202020202020EF
:1045C00020202020232320202323202020202023DC
:1045D0002320202020232320202020090D0A000052
:1045E00009232320202020202020202023232323D0
:1045F00020202020202020202020202023232020B5
:104600002323202020202023232020202023232098
:10461000202020090D0A000009232320202020202B
:104620002020202020232320202020232323232375
:104630002323202023232020232320202020202365
:104640002320202020232320202020090D0A0000E1
:104650000923232020202020202020202023232065
:104660002020202020202020202020202323202044
:104670002323202020202023232020202023232028
:10468000202020090D0A00000923232323232323AC
:104690002320202020232320202020202020202011
:1046A00020202023232323202023232323232323E9
:1046B0002020202020232320202020090D0A000074
:1046C00020202020202020202020202020202020EA
:1046D00020202020202020202020202020202020DA
:1046E00020202020202020202020202020202020CA
:1046F000202020202020200D0A0000000909E99B2D
:10470000B6E5A3B9E5AE9EE9AA8CE5AEA420E280A9
:1047100094E28094E28094E2809420496F54204F88
:104720006E654E4554204D51545420090D0A000029
:104730002020202020202020202020202020202079
:104740002020202020202020202020202020202069
:104750002020202020202020202020202020202059
:1047600020202020200909090D0A00003D3D3D3D83
:104770003D3D3D3D3D3D3D3D3D3D3D3D3D3D3D3D69
:104780003D3D3D3D3D3D3D3D3D3D3D3D3D3D3D3D59
:104790003D3D3D3D3D3D3D3D3D3D3D3D3D3D3D3D49
:1047A0003D3D3D3D3D3D09090D0A000020202320EF
:1047B000E7A88BE5BA8FE5908DE7A7B03A20496F5F
:1047C00054204F6E654E4554204D515454090909EB
:1047D0000909090D0A000000304B000830393A344D
:1047E000313A3439000000004D61722032302032FD
:1047F0003032360020202320E7BC96E8AF91E697C0
:10480000B6E997B43A202573202573202020202074
:104810002020202020202020202020202009200DC2
:104820000A000000F0F7FF1F20202320E88AAFE7EE
:104830008987E7BC96E58FB7EFBC9A253038582DAD
:10484000253038582D25303858200D0A000000003A
:10485000744B0008202023204220E7AB99E4B8BB2A
:10486000E9A1B53A2068747470733A2F2F737061A0
:1048700063652E62696C6962696C692E636F6D2F66
:10488000343034333730353332200D0A0000000025
:1048900020202320E58D9AE5AEA2E4B8BBE9A1B5BE
:1048A0003A2068747470733A2F2F626C6F672E63AE
:1048B00073646E2E6E65742F57616E6732383639A9
:1048C000393032323134200D0A00000007A0FEF7E3
:1048D00017FA13A0FEF714FAAFF2E830FEF710FA59
:1048E000BDE810400DA0FEF70BBA000020202320E9
:1048F000476974687562E4B8BBE9A1B53A20687489
:104900007470733A2F2F6769746875622E636F6DC8
:104910002F5A65726F4F6E654C6162200D0A000060
:10492000202023204769746565E4B8BBE9A1B53A46
:104930000968747470733A2F2F67697465652E6304
:104940006F6D2F57616E67323836393930323231F8
:1049500034200D0A000000000102020304050607CE
:1049600008090A0B0C0D0E0F1010000000000000CB
:10497000000001020304060708090000000001020C
:1049800003040000F04A00080000000000000000DE
:1049900000000000EC4A0008E84A00083200140059
:1049A000C8000000004B0008E84A0008030014009B
:1049B000401F0000D84A0008E84A0008030014001D
:1049C000401F0000E44A0008E84A00080300140001
:1049D000C8000000904A0008E84A000803001400DC
:1049E000C8000000BC4A0008E84A000803001400A0
:1049F000401F00009C4A0008E84A00080300140019
:104A0000C8000000AC4A0008E84A0008030014008F
:104A1000D0070000844A0008E84A00080300140098
:104A2000C8000000C84A000800000000010014008F
:104A300064000000084B0008E84A00080100140068
:104A4000C8000000DDDDDDDDDCBBBBDDDDDDDDDD87
:104A5000DDDDDDDD988888888888888877777777B6
:104A60007788888885555556666666666666666682
:104A7000666888888333333222222222222222222D
:104A80002228888D41542B4D5154545355423D009A
:104A900041542B43574D4F44453D000041542B4D4D
:104AA000515454555345524346473D0041542B4DB4
:104AB000515454434F4E4E3D0000000041542B438F
:104AC000574A41503D00000041542B4D5154545021
:104AD00055425241573D000041542B524553544FCB
:104AE00052450000415445004F4B00004154000026
:104AF00041545F434D445F44454641554C5400008A
:104B000041542B5253540000000000002B4D5154CF
:104B100054535542524543563A00000041545F4DAC
:104B20004F4E49544F525F44454641554C54000046
:104B300020202320E59BBAE4BBB6E78988E69CAC3D
:104B40003A2056312E302E302020202020202020C8
:104B50002020202020202020202020202020202055
:104B60002020202020202020202020202020090973
:104B70000D0A000020202320E68A80E69CAFE4BADC
:104B8000A4E6B5813A2051E7BEA42031383139324C
:104B900031393338202020202020202020202020C0
:104BA0002020202020202020202020202020202005
:104BB0002020200D0A000000D84B00080000002033
:104BC00018050000C4120008084D00081805002050
:104BD000C00B0000B82D00083201821053127A1366
:104BE0001C4B1B080C042100081969716F6F3132CE
:104BF00033191C06183435363738E0136D71747468
:104C0000732E6865636C6F7564732E636F6D000A35
:104C1000195B076465762D303031000B164530394D
:104C20004D397952444930882376657273696F6EC5
:104C30003D323031382D31302D3331267265733DA0
:104C400070726F647563747325324642190D196F63
:104C50002C696365175979182A2665743D313830F7
:104C600034373434363831266D6574686F643D6D81
:104C70006435267369676E3D4D4258765A524552E7
:104C8000686B33180F467133783270424A456C5165
:104C90002533440301838E247379732FE35A2FD76E
:104CA00008157E2F7468696E672F70726F70657259
:104CB00074792F706F7374800F742F7265706C79B4
:104CC000800D527365745F7F0929800156180B436C
:104CD000757272656E7454656D69E661747572659E
:104CE0000A28034400091148756D696469747909DB
:104CF000224405404C4544311944021C3202230130
:084D000004454A445100000083
:0400000508000131BD
:00000001FF
