:020000040800F2
:10000000B0080020490100083F1600088F150008BD
:100010003D160008250700083519000800000000FB
:10002000000000000000000000000000431600086F
:1000300027070008000000004116000845160008C8
:100040006301000863010008630100086301000800
:1000500063010008630100086301000863010008F0
:1000600063010008630100086301000863010008E0
:1000700063010008630100086301000863010008D0
:1000800063010008630100086301000863010008C0
:1000900063010008630100086301000863010008B0
:1000A00063010008630100086301000863010008A0
:1000B0006301000863010008630100086301000890
:1000C0006301000863010008630100086301000880
:1000D0006301000863010008630100082919000892
:1000E0006301000863010008630100086301000860
:1000F0006301000863010008630100086301000850
:10010000630100086301000863010008630100083F
:10011000630100086301000863010008630100082F
:10012000630100086301000863010008630100081F
:10013000DFF810D000F066FA0048004751260008AA
:10014000AFF30080B008002006488047064800470B
:10015000FEE7FEE7FEE7FEE7FEE7FEE7FEE7FEE777
:10016000FEE7FEE7A716000831010008202A04DB9D
:10017000203A21FA02F00021704721FA02F3D04020
:10018000C2F12002914008431946704740EA01033A
:100190009B0703D009E008C9121F08C0042AFAD23D
:1001A00003E011F8013B00F8013B521EF9D2704701
:1001B000D2B201E000F8012B491EFBD270470022A9
:1001C000F6E710B513460A4604461946FFF7F0FF56
:1001D000204610BD30B505462A460B4612F8010BE5
:1001E00013F8014B08B1A042F8D01CB1002802D08E
:1001F0006D1CF1E7284630BD421C10F8011B002998
:10020000FBD1801A704730B50B46014600202022F2
:10021000012409E021FA02F59D4205D303FA02F513
:10022000491B04FA02F52844151EA2F10102F1DC73
:1002300030BD2DE9F05F0546002092469B4688467A
:100240000646814640241BE0284641464746224652
:10025000FFF78CFF53465A46C01A914110D31146FE
:100260001846224600F0E0F92D1A67EB01084F46C8
:1002700022460120002100F0D7F917EB00094E417A
:10028000201EA4F10104DFDC484631462A464346DD
:10029000BDE8F09F2DE9FE4F804681EA0300C00FC4
:1002A0000C46009021F0004123F00045B8EB02001D
:1002B000A94105D24046214690461C460B460246BF
:1002C00023F00040104347D0270DC7F30A00C3F3C3
:1002D0000A510290401A019040286BDAC3F31300D0
:1002E00040F4801B0098924620B10023D2EB030A11
:1002F00063EB0B0B01985946C0F14002504600F0E9
:1003000093F906460D4650465946019A00F09BF96E
:1003100010EB08006141002487EA115284EAE77378
:100320001A4340D0009A62B3019A012A4FEA075259
:1003300015DC001B61EB02014FF0004202EA07529C
:10034000CDE90042001C41F5801132462B4600F0F9
:100350009BF903B0BDE8F08F40462146F9E7001B4A
:1003600061EB0201001C41F5801300185B4120186D
:10037000A2F5001747EB030140EAD570B6196D41AD
:1003800011E06D084FEA360645EAC0754FEA07529C
:10039000001B61EB0201001C41F5801149084FEA86
:1003A00030000019514132462B4603B0BDE8F04FF2
:1003B00000F05BB90098012240000023D0EB02025C
:1003C00063EBE073009821464FEAE074B8EB00005D
:1003D00061EB0401E9E783F000435BE781F0004152
:1003E00058E72DE9FE4F81EA030404F0004421F0B0
:1003F000004100944FF0000B23F0004350EA010449
:100400005ED052EA03045BD0C3F30A54C1F30A5529
:100410002C44A4F2F3340194A0FB0254C1F3130161
:1004200041F48011C3F3130343F4801301FB02442E
:1004300000FB034E840A970A44EA815447EA835733
:10044000A4FB076802958D0A05FB07854FEA932CEC
:1004500004FB0C542705029D4FEA065847EA16375D
:10046000B5EB08056EEB070C870E920E47EA811775
:1004700042EA8312A7FB0201B6EB0B0164EB000416
:100480002B0D43EA0C335E1844EB1C50DA46514600
:10049000E7FB0201C5F313044FEA0B3343EA14539D
:1004A0004FEA0432019C43EA0603A4F10C040294CF
:1004B000009CCDE900B400F0E7F803B0BDE8F08F90
:1004C00000200146F9E72DE9F04D81EA030404F02C
:1004D000004B21F0004514464FF0000A23F0004184
:1004E00050EA050220D054EA01021DD0C5F30A5794
:1004F0000246C5F31303C1F31300C1F30A5640F4D7
:10050000801543F48013A7EB0608101BD64608F2AB
:10051000FD3873EB050002D308F1010801E09218E1
:100520005B41B8F1000F03DA00200146BDE8F08D11
:1005300000204FF48011064684460EE0171B73EB33
:10054000050705D3121B63EB050306434CEA010CB8
:1005500049084FEA300092185B4150EA0107EDD19B
:1005600052EA030012D082EA040083EA050108433C
:1005700005D0101BAB4106D20122002306E0002269
:100580004FF0004302E06FF0010253101AEB060037
:100590004CEB085110EB0A0041EB0B01BDE8F04DAC
:1005A00000F063B8C1F30A52C1F3130140F2FF3304
:1005B00041F480119A4202DA00200146704740F26D
:1005C00033439A42A2F2334202DC5242FFF7CEBDDD
:1005D00000F02AB830B5041E71F1000404DB4FF0BE
:1005E0000044404264EB0101141E73F1000405DB7A
:1005F0001C464FF00043524263EB0403994208BF8C
:10060000904230BD064C074D06E0E06840F0010323
:1006100094E8070098471034AC42F6D3FFF78CFDFE
:10062000182B0008382B0008202A04DB203A00FA97
:1006300002F1002070479140C2F1200320FA03F339
:10064000194390407047202A06DBCB17203A41FA25
:1006500002F043EAE07306E041FA02F3D040C2F14F
:100660002002914008431946704710B5141E73F1DB
:10067000000408DA401C41F1000192185B411A4362
:1006800001D120F0010010BD2DE9F04D92469B46AE
:1006900011B1B1FA81F202E0B0FA80F22032904654
:1006A000FFF7C2FF04460F4640EA0A0041EA0B0189
:1006B00053465A46084313D0114653EA010019D055
:1006C000C8F140025046FFF751FD05460E46504620
:1006D00059464246FFF7A8FF084305D0012004E031
:1006E00020463946BDE8F08D0020054346EAE07615
:1006F0002C4337430A986305E40AA0EB0800002264
:10070000FD0A44EA47540A3002D500200146E9E7D1
:10071000010510196941DDE9084500196941BDE885
:10072000F04DA2E7FEE7704772B6FEE710B590F80D
:1007300021100022022905D00421816380F82020A5
:10074000012010BD01680B6823F00E030B600168E7
:100750000B6823F001030B6090F84030C46B01215B
:1007600001FA03F3636080F8211080F8202010461E
:1007700010BD00002DE9F05F90F82110002402293F
:1007800003D004218163012485E001680A6822F016
:100790000E020A6001680A6822F001020A603F4EF8
:1007A0003E4FB215DFF8F4C0DFF8F090DFF8ECA0B0
:1007B000DFF8E8B0DFF8E4E00168783F13011502E4
:1007C000ACF1640CA9F15009AAF13C0AABF1280B79
:1007D000AEF1140E4FF48018B14227D9B9420ED0B1
:1007E000614512D049451DD0514518D0594518D002
:1007F000714501D1424615E0294EB14201D1012295
:1008000010E0274E1436B14201D110220AE0244EE6
:100810002836B14206D0224A3C32914201D11A46D2
:1008200000E02A461E49091F0A602BE0B94213D096
:10083000614517D0494522D051451DD059451DD09D
:10084000714501D142461AE0B14202D14FF08072A7
:1008500015E0134EB14201D1012210E0104E1436C2
:10086000B14201D110220AE00D4E2836B14206D025
:100870000B4A3C32914201D11A4600E02A46074910
:1008800080394A60012180F82110002180F8201071
:10089000416B01B188472046BDE8F09F80000240CF
:1008A0000804024070B5044600F00AF90546601CD1
:1008B00002D004480078044400F002F9401BA04232
:1008C000FAD370BD000000202DE9F84FDFF8C89181
:1008D0000024A9F1040B23460F2709F1040AABF108
:1008E000040ED1E00125A54006EA0502AA4276D110
:1008F000DFF8A8C14E68A6EB0C0866452BD00DDCCE
:10090000032E34D005DC36B3012E19D0022E2FD1A0
:100910001BE0112E16D0122E2AD119E0B8F5881F2F
:1009200019D006DCB8F5803F15D0B8F5801F1FD16F
:1009300011E0B8F5001F0ED0B8F5041F18D10AE079
:10094000CB6815E0CB681B1D12E0CB6808330FE0C5
:10095000CB680C330CE08B682BB1012B4FF00803F4
:1009600003D0456104E0042302E0056100E00023B8
:10097000FF2A01D8064601E000F104064FEA84058B
:1009800001D9A5F12005D6F8008007FA05FC28EA70
:100990000C0803FA05F548EA0508C6F800804D681A
:1009A000ED0070D53E4DAE6946F00106AE61AD6911
:1009B00024F0030605F0010500953A4D06EB050C01
:1009C000DCF80850A607360F07FA06F825EA0805EE
:1009D000DFF8D480404503D14FF0000825E052E015
:1009E000DFF8C880404502D14FF001081DE0DFF874
:1009F000C080404502D14FF0020816E0DFF8B48015
:100A0000404502D14FF003080FE0DFF8AC804045CD
:100A100002D14FF0040808E0DFF8A080404502D181
:100A20004FF0050801E04FF0060808FA06F848EA1A
:100A30000508CCF808804D68D9F80060ED024D46F5
:100A400001D5164300E096432E604D68DAF8006049
:100A5000AD02554601D5164300E096432E604D6821
:100A6000DBF80060AD035D4601D5164300E0964318
:100A70002E604D68DEF80060ED03754601D5164323
:100A800000E096432E60641C0A681646E2407FF43C
:100A900029AFBDE8F88F00000804014000001110E4
:100AA000001002400000014000080140000C01401D
:100AB000001001400014014000180140001C0140DA
:100AC00001488068704700000000002002488168EB
:100AD000027811448160704700000020074810B57B
:100AE000016841F010010160032000F075F80F204B
:100AF00000F006F800F024F8002010BD00200240AD
:100B000070B50D4D04464FF47A712878B1FBF0F0C2
:100B10000A490968B1FBF0F000F0DCFA48B9102C82
:100B200007D200222146501E00F036F800206C60EB
:100B300070BD012070BD0000000000200C000020EE
:100B40000C4808B5816941F001018161816901F0BA
:100B500001010091C16941F08051C161C06900F09B
:100B6000805000900448416821F0E06141F000713C
:100B7000416008BD0010024000000140002809DB70
:100B800000F01F02012191404009800000F1E020A7
:100B9000C0F8001170470000F0B40E4B1B680C4603
:100BA000C3F30223C3F10705042D00D90425191D41
:100BB000072901D2002300E0DB1E012606FA05F119
:100BC000491E214099409E40761E16403143F0BC9C
:100BD00000F0F6BE0CED00E0064900F007020868E0
:100BE0004FF6FF03184040EA0220034A1043086012
:100BF000704700000CED00E00000FA052DE9F04719
:100C00000F46050061D0434E306800F00700B8423F
:100C100009D2306820F0070038433060306800F0B7
:100C20000700B84251D128683B4C810712D54007D4
:100C300003D5606840F4E06060602878000703D561
:100C4000606840F4605060606068A96820F0F0005F
:100C5000084360602878C00728D06868012810D051
:100C60002168022810D0890700292EDA616821F056
:100C7000030101436160FFF723FF804641F2883999
:100C80000DE021688903EFE78901EDE7FFF718FF21
:100C9000A0EB0801494502D90320BDE8F087606850
:100CA000696800F00C00B0EB810FEFD1306800F004
:100CB0000700B8420BD9306820F007003843306095
:100CC000306800F00700B84201D00120E5E728783D
:100CD000400705D56068E96820F4E060084360607B
:100CE0002878000706D56068296920F4605040EA3A
:100CF000C100606000F038F86168084AC1F3031170
:100D0000515CC8400649086006480068FFF7F8FED5
:100D10000020C2E700200240001002406E2A0008B6
:100D20000C000020040000200448054900684968C0
:100D3000044AC1F30221515CC84070470C000020F6
:100D4000001002407E2A00080448054900684968EE
:100D5000044AC1F3C221515CC84070470C00002016
:100D6000001002407E2A00080E4A51680E4801F029
:100D70000C03042B11D0082B0FD10C48C1F3834373
:100D8000C903C05C0AD55168084AC1F34041921EAC
:100D9000515C054A5043B0FBF1F0704704494843A9
:100DA000704700000010024000127A005E2A00081E
:100DB00000093D002DE9F84F040070D02078C04DA7
:100DC000C00749D06868C0F38100012807D068686F
:100DD000C0F38100022809D16868C00306D52868DD
:100DE000800339D560680028E7D035E06068B0F549
:100DF000803F0BD010B1B0F5A02F11D0286820F49F
:100E000080302860286820F4802002E0286840F4C0
:100E100080302860606890B1FFF752FE06460AE015
:100E2000286840F480202860F0E700BFFFF748FE04
:100E3000801B642873D828688003F7D50CE0FFF77F
:100E40003FFE064605E000BFFFF73AFE801B642820
:100E5000F0D828688003F7D420789A4E80074FF0A6
:100E600001094FF0000839D5686810F00C0F07D061
:100E70006868C0F38100022809D16868C00306D4FD
:100E80002868800714D52069012808D110E020695E
:100E9000B0B1C6F80090FFF713FE074605E00AE17F
:100EA000FFF70EFEC01B0228C4D828688007F7D5BC
:100EB0002868616920F0F80040EAC10028600DE070
:100EC000C6F80080FFF7FCFD074604E0FFF7F8FDD9
:100ED000C01B022823D828688007F7D42078000791
:100EE0002CD57948A169D9B1C0F80090FFF7E8FD89
:100EF000074604E0FFF7E4FDC01B02280FD8686A2C
:100F00008007F7D571484FF4FA510068B0FBF1F053
:100F1000009000BF0098411E0091FAD20EE080E0E0
:100F2000C0F80080FFF7CCFD074604E0FFF7C8FDDE
:100F3000C01B022875D8686A8007F7D4207840075C
:100F400060D5E8690027C00008D4E86940F0805007
:100F5000E861E869012700F0805000905C48016872
:100F6000C90513D40168834641F480710160FFF71D
:100F7000A7FD824606E000BFFFF7A2FDA0EB0A0036
:100F800064284ED8DBF80000C005F5D5E0680128DC
:100F90000AD008B1052813D0286A20F00100286281
:100FA000286A20F0040002E0286A40F0010028626C
:100FB000E06841F2883B98B1FFF782FD82460BE082
:100FC000286A40F004002862EEE700BFFFF778FDD2
:100FD000A0EB0A0159455AD8286A8007F6D50CE0DB
:100FE000FFF76EFD824605E0FFF76AFDA0EB0A0100
:100FF00059454CD8286A8007F6D41FB1E86920F01B
:101000008050E861E06988B36968C1F38101022911
:1010100044D00228C6F8608004D0FFF751FD044692
:1010200038E034E0FFF74CFD074604E0FFF748FDE9
:10103000C01B02282BD828688001F7D4206AB0F59D
:10104000803F05D16868A16820F4003008436860DB
:10105000D4E908010843696821F474110843686001
:10106000C6F86090FFF72CFD044606E025E000BFBF
:10107000FFF726FD001B022809D828688001F7D554
:101080001BE000BFFFF71CFD001B022802D9032054
:10109000BDE8F88F28688001F4D40EE00128F7D06D
:1010A0006868226A00F48031914204D1616A00F4D8
:1010B0007010884201D00120EAE70020E8E7000034
:1010C0000010024000004242800442420C00002016
:1010D0000070004010B5401EB0F1807F01D30120A8
:1010E00010BD4FF0E02460610F21601700F068FC34
:1010F0000020A06107202061002010BD70477047CC
:10110000F8B5016804460868CA684B6910F00F0F0B
:101110004FF0000559D003F0010602F490773743F1
:1011200065D0C10705D0D10503D5616C41F001013F
:101130006164410705D5D90703D0616C41F0020114
:101140006164810705D5D90703D0616C41F00401C2
:101150006164010707D502F02001314303D0616CBF
:1011600041F008016164616C00293AD0800604D521
:10117000900602D5204600F0C6FA20684069616CEE
:10118000C0F38010090700D460B3204600F094FA41
:1011900020684069400621D52068143050E8001FBF
:1011A00021F0400140E80012002AF5D1E06BA8B11F
:1011B0006D494163E06BFFF7DDFA002811D0E06B69
:1011C000416B01B0BDE8F040084783060FD5930698
:1011D0000DD52046BDE8F84000F095BA2046FFF74F
:1011E0008EFFF8BD2046FFF78AFF6564F8BD266BC9
:1011F0002023012E7CD1C6067AD5D60678D508687C
:101200004868009048694FF00206400640D5E16BFF
:10121000086840680004000CE8D0A28D8242E5D93D
:10122000E085886920282DD020680C3050E8001F08
:1012300021F4807140E80012002AF5D120681430B2
:1012400050E8001F21F0010140E80012002AF5D10A
:101250002068143050E8001F21F0400140E80012DF
:10126000002AF5D184F84230256320680C3050E81C
:10127000001F21F0100140E80012002AF5D1E06BB8
:10128000FFF754FA6663A08DE18D401A81B22AE01F
:10129000A08DE18D401A81B2E08D0028A6D00029F2
:1012A000A4D022680C3252E8000F20F4907042E87B
:1012B0000007002FF5D12068143050E8002F22F0ED
:1012C000010240E80027002FF5D184F84230256361
:1012D00020680C3050E8002F22F0100240E8002374
:1012E000002BF5D166632046FFF708FFF8BDFFE746
:1012F00005062BD5150629D594F841002128F5D1EE
:10130000A068B0F5805F01D12069B0B1206A411CAE
:101310002162216800784860E08C401E0004000CC7
:10132000E084E3D12068C16821F08001C1602068B9
:10133000C16841F04001C160D8E7206A0088C0F36D
:1013400008004860206A801C2062E5E74006CDD591
:101350005006CBD5CA68204622F04002CA6084F805
:10136000413000F013F9C1E7A916000870B5040078
:1013700004D094F84100002510B106E0012070BDB2
:1013800084F84050204600F023F8242084F84100DF
:101390002068C16821F40051C160204600F014FAB1
:1013A0002068016921F4904101612068416921F0C0
:1013B0002A0141612068C16841F40051C16065643F
:1013C000202084F8410084F842006563002070BD4D
:1013D00070B586B0002400940194029403940368CD
:1013E0002B482A4E022103220515B34221D18369DD
:1013F00043F480438361836903F4804304938369E6
:1014000043F0040383618069224E00F004000490DD
:101410000802CDE90001039269463046FFF754FA0D
:10142000CDE90054694630460294FFF74DFA06B004
:1014300070BD194EB342FAD1C36943F48023C3612E
:10144000C36903F480230493836943F00803836131
:101450008069CDE9005100F00800CDE903200F4D6F
:1014600069462846FFF730FAE814CDE900046946DA
:1014700028460294FFF728FA002211462720FFF79A
:101480008BFB2720FFF77AFBD1E7000000380140F3
:10149000001002400008014000480040000C0140DC
:1014A00090F84230202B01D00220704721B11AB1B0
:1014B0000023036300F0E4B90120704710B5006811
:1014C000074988420BD101220649002001F04AF861
:1014D000BDE81040012203490348FFF7E1BF10BDFA
:1014E0000048004018000020680000202DE9F84363
:1014F000044690F84100984616460D46202802D032
:101500000220BDE8F88385B17EB10020606421200F
:1015100084F84100FFF7D4FAA6848146E684A068E7
:101520002027B0F5805F02D003E00120E9E72069C1
:1015300010B12E4600250EE000260CE0802120464A
:1015400000F0B9F9A8B9C6B116F8010B21684860D6
:10155000E08C401EE084E08C4B464FF00002CDF85A
:1015600000800028EAD14FF04001204600F0A3F9A6
:1015700040B184F841700320C3E735F8020BC0F393
:101580000800E3E784F841700020BAE77047FEE7FF
:101590000D4808B5816941F020018161816901F040
:1015A00020010091816941F008018161816901F0A8
:1015B00008010091816941F004018161806900F0B6
:1015C0000400009008BD0000001002400C4810B557
:1015D0000A4901604FF4E1314160002181600C2231
:1015E000C160C0E904128161C161FFF7BFFE00283C
:1015F00003D0BDE81040FFF797B810BD0038014098
:10160000200000200C4810B50A4901604FF4E13178
:101610004160002181600C22C160C0E90412816137
:10162000C161FFF7A3FE002803D0BDE81040FFF71B
:101630007BB810BD0048004068000020FEE7FEE7D0
:1016400070477047FFF742BA30B58FB0282168461F
:10165000FEF7B5FD14210AA8FEF7B1FD012108042B
:10166000CDE900100024029402250491CDE9075031
:101670004FF4E01009906846FFF79CFB08B172B682
:10168000FEE70F20CDE90A054FF48060CDE90C405C
:1016900002210AA80E94FFF7B1FA002801D072B611
:1016A000FEE70FB030BD704710B5406A0021C1851C
:1016B000C184FFF724FD10BD01680C3151E8002FF3
:1016C00022F4907241E80023002BF5D10168143117
:1016D00051E8002F22F0010241E80023002BF5D150
:1016E000016B012909D101680C3151E8002F22F06A
:1016F000100241E80023002BF5D1202180F8421090
:1017000000210163704708B590F84210222901D0EA
:10171000022008BD82684FF480539A4201D10169CA
:1017200021B1816A9A421BD04AB10AE00268816AFB
:101730005268C2F308020A80816A891C08E00269C3
:1017400072B10268526802F07F020A70816A491C15
:101750008162C18D491E0904090CC18503D01BE0BB
:1017600002685268F1E70168CA6822F02002CA6084
:101770000168CA6822F48072CA6001684A6922F06E
:1017800001024A61202180F8421000214163026B6E
:10179000012A03D0FFF792FE002008BD0163016813
:1017A0000C3151E8002F22F0100241E80023002BF9
:1017B000F5D101680A68D20602D50A684968009125
:1017C000818DFFF79BFCE7E770B50446006801696F
:1017D000E26821F44051114301612169A068084386
:1017E000616908432168CA6841F20C639A43024365
:1017F000CA6020684169A26921F4407111434161C6
:101800001E492068884202D1FFF79EFA01E0FFF7E7
:101810008BFA00EBC00101EB0012606864218000CC
:10182000B2FBF0F3B3FBF1F36FF018067343B2FBB6
:10183000F0F5B2FBF0F605EB8305322303EB05155B
:10184000B5FBF1F5B6FBF1F605F0F00505EB061575
:10185000B2FBF0F6B2FBF0F0B0FBF1F06FF0180263
:10186000504306EB800003EB0010B0FBF1F0216861
:1018700000F00F002844886070BD0000003801406F
:1018800081628285C28500214164222180F8421054
:10189000016921B10168CA6842F48072CA600168B6
:1018A0004A6942F001024A610068C16841F02001C2
:1018B000C160002070472DE9F843984617460D4651
:1018C0000446089E24E0701C22D0FFF7F9F8A0EB34
:1018D0000800B0421AD8CEB12068C168490717D5B0
:1018E000802D15D0402D13D00168C94309070FD4AE
:1018F00001680025406800902046FFF7DDFE0820C3
:10190000606484F840500120BDE8F8830320FBE7C1
:101910002068006835EA000004D00020B842D2D028
:101920000020F1E70120F9E70148FFF7E9BB0000DB
:1019300068000020FEE700000FB4054B10B503A9B6
:10194000044A029800F01EF910BC5DF814FB000078
:10195000392600081C0000200FB47CB50C0009AD2E
:1019600001D0611E00E00021CDE90001064B6A466E
:101970002946089800F006F9002C02D0009A0021B0
:1019800011707CBC5DF814FB8B2200087CB50C0048
:101990001D461646014601D0601E00E00020CDE93C
:1019A0000010064B6A462946304600F0EBF8002C42
:1019B00002D0009A002111707CBD00008B2200082B
:1019C0000907090E002804DB00F1E02080F800146C
:1019D000704700F00F0000F1E02080F8141D704700
:1019E00002E008C8121F08C1002AFAD170477047E8
:1019F000002001E001C1121F002AFBD17047000046
:101A00002DE9FF5F82B00021DDE90430020DDDF831
:101A100040B0034318D044F61050A2F2FF324243C4
:101A20001514119801281FD0A5EB0B00401C5FEA8C
:101A3000000A4FF000064E4FDFF83891B04650468E
:101A400015D5CAF1000413E0119801244AA3012816
:101A500001D16FEA0B010298119AC0E90031C0E987
:101A6000024206B0BDE8F09FCBF10000DFE704467C
:101A70000021404A491842EB0450CDE9001012E021
:101A8000E00707D032463B4640464946FEF7A9FCF0
:101A90008046894632463B4610461946FEF7A1FC71
:101AA00006460F466410002CEAD1DDE90401DDE9A9
:101AB0000023BAF1000F06DAFEF793FC42464B46CC
:101AC000FEF78FFC05E0FEF7FEFC42464B46FEF7B4
:101AD000FAFC04460E460022284BFEF77BFD03D895
:101AE0004FF0FF30014607E00022254B20463146EB
:101AF000FEF7D0FBFEF756FD102409E0002C0ADBB0
:101B00000A220023FEF795FB039B30321A55641E10
:101B100050EA0102F2D1641C039AC4F11103144487
:101B2000119A012A03D0012208430DD10AE008438B
:101B300004D000204FF0110B119072E7A3EB0B05BE
:101B40006D1E0DE05B4504DD4FF0000205F101055F
:101B500004E003DA4FF00002A5F10105002AECD001
:101B600002981199C0E90231C0E9004579E7000007
:101B7000000014400000F03F300000000000F0437F
:101B80000000E03F2DE9FF4F95B09A468846064693
:101B90000025EEE1252877D100242746F94A0121C6
:101BA000039400E0044316F8013F203B01FA03F0E0
:101BB0001042F7D130782A2811D06FF02F033078F7
:101BC000A0F13002092A16D8039A44F0020402EB6D
:101BD000820203EB42021044761C0390EFE758F8B0
:101BE000042B0392002A03DA504244F40054039079
:101BF00044F00204761C30782E2816D116F8010F16
:101C000044F004042A280DD06FF02F023078A0F1A0
:101C10003003092B09D807EB870302EB4303C718EE
:101C2000761CF3E758F8047B761C30786C280FD0CC
:101C300006DC4C2817D068280DD06A2814D104E09F
:101C4000742810D07A280FD10DE044F400140AE073
:101C500044F4801401E044F440147278824202D1CA
:101C600004F58014761C761C307866280BD013DCC3
:101C7000582877D009DC002875D04528F6D04628AA
:101C8000F4D047281AD193E118E0632835D06428AE
:101C900079D0652812D18BE1702873D008DC6728D1
:101CA000F1D069286FD06E280DD06F2806D1ACE036
:101CB00073282CD0752874D0782853D052461799A1
:101CC00090476D1C54E1C4F30250022809D0032848
:101CD0000DD0D8F8001004280DD00D6008F10408CC
:101CE00046E1D8F80010EA17C1E90052F6E7D8F843
:101CF00000100D80F2E70D70F0E718F8041B8DF866
:101D0000001000208DF80100EB46012003E058F898
:101D100004BB4FF0FF3061074FF0000102D40DE02B
:101D200009F101018946B9420FDA8145F8DB1BF858
:101D300009100029F4D108E009F101018946814226
:101D4000FADB1BF809100029F6D103985346A0EBE3
:101D5000090721463846179A00F080FA284400EB1C
:101D6000090507E044E008E10DE01BF8010B5246CD
:101D700017999047B9F10109F7D2534621463846E1
:101D8000179AF2E039E00A21C4F302524FF0000B37
:101D90000091022A06D058F8040BC117032A09D073
:101DA0000AE023E008F1070020F00702F2E8020150
:101DB000904605E000B2C117042A01D140B2C11714
:101DC000002906DA0A460021404261EB02012D2279
:101DD00002E0220504D52B228DF80420012203E025
:101DE000E20701D02022F7E7914657E00A2100E000
:101DF00010214FF0000B00910BE010214FF0000B71
:101E000044F004040827009103E008204FF0000B81
:101E10000090C4F30252022A05D058F8040B0021A6
:101E2000032A08D008E008F1070020F00702F2E8D2
:101E30000201904603E080B2042A00D1C0B24FF004
:101E4000000922072AD53278702A07D0DDF800C0B1
:101E50008CF0100C5CEA0B0C05D00EE040228DF8E3
:101E60000420012208E050EA010306D030238DF857
:101E700004308DF8052002229146009B83F0080370
:101E800053EA0B030AD150EA010201D1620705D5DA
:101E900030228DF804204FF001097F1E3278582A35
:101EA00004D039A20C920CAA02920BE03BA2F9E7F3
:101EB0005B46009AFEF7BDF90C9B9B5C029A521E92
:101EC0000292137050EA0102F2D1029804A9081A92
:101ED00000F1200B600702D524F4803400E00127D4
:101EE0005F4502DDA7EB0B0000E0002000EB0B01DB
:101EF000009003984944401A0390E00306D45346E7
:101F00002146179A039800F0A9F90544002706E036
:101F100001A85246C05D179990476D1C7F1C4F4524
:101F2000F6DBE0030CD553462146179A039800F0E0
:101F300095F9054404E030205246179990476D1CEE
:101F40000099481E00900029F5DC08E002980299EB
:101F500052460078491C0291179990476D1CBBF1BD
:101F60000001ABF1010BF1DC5BE100F065F9054428
:101F7000761C307800287FF40DAE19B02846BDE8F5
:101F8000F08F000009280100303132333435363704
:101F900038396162636465660000000030313233B5
:101FA0003435363738394142434445460000000055
:101FB000600700D4062708F1070020F00700F0E8CA
:101FC0000223804603F0004C5FEA0C0001D097A08A
:101FD00009E0200501D596A005E0E00701D095A015
:101FE00001E0AFF24C001390307823F000436528F5
:101FF0000CD006DC452809D046281DD047287FD1C3
:102000003BE0662818D067287AD136E00021112FEE
:1020100001DB112000E0781CCDE9000104A90CA827
:10202000FFF7EEFCDDE90D010C9A4FF0000B07F114
:102030000109109200914EE04FF000400097CDE969
:10204000011004A90CA8FFF7DBFCDDE90D020C9BD5
:102050000F994FF0000B91461093009211B9791C23
:1020600000EB0109B7EB090003D4C0F1FF3B07F116
:102070000109A9EB0700019042E0012F00DA0127D6
:102080000021112F01DD112000E03846CDE90001CB
:1020900004A90CA8FFF7B4FCDDE90D010C9A00912E
:1020A0004FF0000BB946109221070FD4009A4A4511
:1020B00003DA914601E0A9F10109B9F1010F05DD4B
:1020C000109AA9F10101515C3029F4D0B84202DA2A
:1020D00010F1040F03DA0121CDE9011010E000280E
:1020E00003DC8344A9EB000102E0411C494500DD0B
:1020F0008946A0EB0B00401C01904FF0004002907D
:10210000200705D40198484502DB4FF0FF300190CD
:1021100000208DF84B0002980DF14B07B0F1004FF5
:1021200025D002200C902B200D90029800280CDA6C
:10213000404202902D200D9007E00A210298FEF700
:1021400062F83031029007F8011D0C99481E0C907E
:102150000029F2DC02980028EFD1791E0D98087052
:10216000307800F0200040F0450007F8020D11A87B
:10217000C01BC01D02901398007800B1012000EB35
:102180000901019801EBE071029801440398401A9B
:10219000401E0390E00306D453462146179A039845
:1021A00000F05CF805441398007818B1524617996E
:1021B00090476D1CE00323D553462146179A039898
:1021C00000F04CF805441BE0BBF1000F07DB009862
:1021D000584504DD1098179910F80B0001E0179985
:1021E00030205246904701980BF1010B401E05F13B
:1021F0000105019004D12E205246179990476D1C7D
:10220000B9F10001A9F10109DEDC05E017F8010BC5
:102210005246179990476D1C0299481E029000295A
:10222000F4DC53462146179A03989EE62D000000E1
:102230002B000000200000002DE9F041044600259D
:102240001E461746880404D405E039462020B047CE
:102250006D1C641EF9D52846BDE8F0812DE9F041DA
:10226000044600251E469046C80301D5302700E0ED
:102270002027880404D505E041463846B0476D1C48
:10228000641EF9D52846BDE8F0814A68002A06D0C8
:102290000A68531C0B6010704868401E4860704705
:1022A00000F0E4F900F012F9002105A3012208462C
:1022B00000F022F8014603A0FFF73EFBFEE7000016
:1022C000000000006174207265733A2025640D0AD5
:1022D0000000000010B5044605484FF4007100EB03
:1022E0004420FDF76CFF0349002021F8140010BDC5
:1022F000B0000020120000200FB42DE9F047804606
:102300001648894600EB48244FF4007715463946B5
:102310002046FDF754FF12480CAE00EB0515204691
:1023200010A239462B68FFF717FB2046FDF764FF24
:10233000C0F500772046FDF75FFF2044334639465D
:102340000B9AFFF723FB2B4621464A46404600F0F6
:102350000BF8BDE8F0075DF814FB0000B0020020A8
:10236000882A0008257300002DE9FF5F1E4690466D
:1023700007464FF0000B012500F0DAF838484FF01F
:10238000000A00EB472460E03846FFF7A3FF0198FE
:10239000FDF732FF82B23846019900F0D9F80222E7
:1023A00030A1384600F0D4F80BF1010000F0FF0B2B
:1023B000706818B100F0BEF8814624E0B08900F0E2
:1023C000B5F8B8F1000F01D0C8F8004000253FE093
:1023D000708900F0ABF8244830F81710090412D5C2
:1023E00030F81710C1F30E0120F81710204671685D
:1023F000FDF7F0FE30B1B8F1000F01D0C8F8004091
:1024000000250DE0022500F095F8B189A0EB090048
:102410008842DDD925B1012D07D0022D0BD010E067
:1024200012A00199FFF788FA12E0594614A0019A08
:10243000FFF782FA05E0234659461BA0019AFFF7F1
:102440007BFA0AF1010000F0FF0A317A51459BD86E
:10245000384600F06EF804B02846BDE8F09F000052
:10246000B00000200D0A0000120000205B41545D06
:102470005B535543435D20434D443A25730D0A0099
:102480005B41545D5B52455452595D5B25686875EC
:102490005D20434D443A25732C2054494D45204F2F
:1024A00055540D0A000000005B41545D5B455252DB
:1024B0005D5B256868755D20434D443A25732C208B
:1024C000524543563A2025730D0A00002DE9F05F6E
:1024D000144FDFF85490002426464FF4007507F59A
:1024E00000784FF0FF0AA9F1020B00BF07EB442070
:1024F0002946FDF764FE08EB44202946FDF75FFE00
:1025000029F814600BF804A0641C14F0FF04EDD04B
:102510000024204600F010F8641C14F0FF04F8D0EA
:10252000BDE8F09FB000002012000020FEF7BAB90D
:1025300070477047FEF7C4BA002804D1024901224F
:102540000248FEF7ADBF7047180000206800002069
:10255000002804D14FF47A730148FEF7C7BF7047D3
:10256000680000202DE9F047264D0446174635F84F
:102570001400C0F30E0000EB0708B8F5007F08D385
:10258000002025F814002146BDE8F0471EA0FFF703
:10259000D3B9DFF89C903A4609EB44263044FDF766
:1025A000F5FD35F81400384425F8140031781FFA89
:1025B00088F03E290AD0022822D9304410F8011CA4
:1025C0000A291DD110F8020C0D2819D1DFF86480FA
:1025D000002609EB442700BF58F826103846FDF7BF
:1025E000F9FD20B9761C16F0FF06F5D0FF26054848
:1025F000801E065535F8140040F4004025F81400FC
:10260000BDE8F087120000205B4552525D20524524
:10261000435620425546464552204F564552464C59
:102620004F5720284C554E3A2564290D0A000000CA
:10263000B00000201400002013B54FF6FF730122F4
:1026400069460248FEF752FF00981CBD200000209A
:10265000FEF744FAFEF7F8FFFEF79AFFFEF7B6FF23
:10266000FEF7D0FFFFF71CFEFEE7000010B523A029
:10267000FFF762F922A0FFF75FF931A0FFF75CF9DD
:102680003EA0FFF759F94BA0FFF756F957A0FFF707
:1026900053F964A0FFF750F970A0FFF74DF96FA050
:1026A000FFF74AF97BA0FFF747F988A0FFF744F945
:1026B00095A0FFF741F9A1A0FFF73EF9AEA0FFF703
:1026C0003BF9BDA0FFF738F9C648FFF735F9C6A2B8
:1026D000C8A1CBA0FFF730F9D5480368001F0268F6
:1026E000001F0168D3A0FFF727F905A0FFF724F921
:1026F000BDE8104001A0FFF71FB900000D0A00005F
:102700003D3D3D3D3D3D3D3D3D3D3D3D3D3D3D3DF9
:102710003D3D3D3D3D3D3D3D3D3D3D3D3D3D3D3DE9
:102720003D3D3D3D3D3D3D3D3D3D3D3D3D3D3D3DD9
:102730003D3D3D3D3D3D3D3D3D3D090D0A00000017
:102740002020202020202020202020202020202089
:102750002020202020202020202020202020202079
:102760002020202020202020202020202020202069
:102770002020202020090D0A00000000092323202A
:10278000202020202020232320202020232320203D
:102790002020202020202023232323202023232324
:1027A000232323232020232323232323232320091C
:1027B0000D0A000009232320202020202020202390
:1027C0002320202323202020202020202020202000
:1027D00023232020232320202020202323202020E7
:1027E00020232320202020090D0A00000923232074
:1027F00020202020202020202323232320202020CD
:1028000020202020202020202323202023232020BC
:1028100020202023232020202023232020202009C3
:102820000D0A000009232320202020202020202022
:10283000202323202020202323232323232320207D
:102840002323202023232020202020232320202076
:1028500020232320202020090D0A00000923232003
:102860002020202020202020202323202020202062
:10287000202020202020202023232020232320204C
:102880002020202323202020202323202020200953
:102890000D0A0000092323232323232323202020A0
:1028A000202323202020202020202020202020231F
:1028B00023232320202323232323232320202020FA
:1028C00020232320202020090D0A00002020202082
:1028D00020202020202020202020202020202020F8
:1028E00020202020202020202020202020202020E8
:1028F00020202020202020202020202020202020D8
:102900002020200D0A0000000909E99BB6E5A3B9C3
:10291000E5AE9EE9AA8CE5AEA420E28094E2809424
:10292000E28094E2809420496F54204F6E654E45BA
:1029300054204D51545420090D0A0000202020201D
:102940002020202020202020202020202020202087
:102950002020202020202020202020202020202077
:102960002020202020202020202020202020202067
:10297000200909090D0A00003D3D3D3D3D3D3D3D1D
:102980003D3D3D3D3D3D3D3D3D3D3D3D3D3D3D3D77
:102990003D3D3D3D3D3D3D3D3D3D3D3D3D3D3D3D67
:1029A0003D3D3D3D3D3D3D3D3D3D3D3D3D3D3D3D57
:1029B0003D3D09090D0A000020202320E7A88BE5F2
:1029C000BA8FE5908DE7A7B03A20496F54204F6E3B
:1029D000654E4554204D5154540909090909090D02
:1029E0000A000000D42A000831363A35353A30372B
:1029F000000000004D61722020322032303236005B
:102A000020202320E7BC96E8AF91E697B6E997B47B
:102A10003A202573202573202020202020202020EC
:102A200020202020202020202009200D0A00000046
:102A3000F0F7FF1F20202320E88AAFE78987E7BC53
:102A400096E58FB7EFBC9A253038582D2530385889
:102A50002D25303858200D0A000000000102020325
:102A60000405060708090A0B0C0D0E0F10100000D4
:102A7000000000000000010203040607080900002E
:102A80000000010203040000B02A0008000000005A
:102A90000000000000000000AC2A0008A82A00087E
:102AA00005006400E80300004F4B000041540000A3
:102AB00041545F434D445F44454641554C540000EA
:102AC00041545F4D4F4E49544F525F444546415526
:102AD0004C54000020202320E59BBAE4BBB6E789D4
:102AE00088E69CAC3A2056302E302E312020202013
:102AF00020202020202020202020202020202020D6
:102B000020202020202020202020202020202020C5
:102B1000202009090D0A0000382B000800000020C1
:102B200020000000E0190008582B000820000020B9
:102B300090080000F01900080100000010000000DB
:102B40000000000000127A0000000000C02A000807
:082B500000000000000000007D
:0400000508000131BD
:00000001FF
